{
	"CAPSTONE/con.sol": {
		"EscrowContract": {
			"abi": [
				{
					"inputs": [
						{
							"internalType": "address",
							"name": "_manufacturer",
							"type": "address"
						},
						{
							"internalType": "address",
							"name": "_deliveryEntity",
							"type": "address"
						},
						{
							"internalType": "address",
							"name": "_receiver",
							"type": "address"
						},
						{
							"internalType": "uint256",
							"name": "_escrowAmount",
							"type": "uint256"
						}
					],
					"stateMutability": "nonpayable",
					"type": "constructor"
				},
				{
					"anonymous": false,
					"inputs": [
						{
							"indexed": false,
							"internalType": "uint256",
							"name": "cash",
							"type": "uint256"
						}
					],
					"name": "Display",
					"type": "event"
				},
				{
					"inputs": [],
					"name": "confirmDelivery",
					"outputs": [],
					"stateMutability": "payable",
					"type": "function"
				},
				{
					"inputs": [],
					"name": "deliveryEntity",
					"outputs": [
						{
							"internalType": "address",
							"name": "",
							"type": "address"
						}
					],
					"stateMutability": "view",
					"type": "function"
				},
				{
					"inputs": [],
					"name": "deliveryStake",
					"outputs": [
						{
							"internalType": "uint256",
							"name": "",
							"type": "uint256"
						}
					],
					"stateMutability": "view",
					"type": "function"
				},
				{
					"inputs": [],
					"name": "disputeFlag",
					"outputs": [
						{
							"internalType": "bool",
							"name": "",
							"type": "bool"
						}
					],
					"stateMutability": "view",
					"type": "function"
				},
				{
					"inputs": [],
					"name": "escrowAmount",
					"outputs": [
						{
							"internalType": "uint256",
							"name": "",
							"type": "uint256"
						}
					],
					"stateMutability": "view",
					"type": "function"
				},
				{
					"inputs": [],
					"name": "getContractBalance",
					"outputs": [
						{
							"internalType": "uint256",
							"name": "",
							"type": "uint256"
						}
					],
					"stateMutability": "view",
					"type": "function"
				},
				{
					"inputs": [],
					"name": "initiateDelivery",
					"outputs": [],
					"stateMutability": "payable",
					"type": "function"
				},
				{
					"inputs": [],
					"name": "manufacturer",
					"outputs": [
						{
							"internalType": "address",
							"name": "",
							"type": "address"
						}
					],
					"stateMutability": "view",
					"type": "function"
				},
				{
					"inputs": [
						{
							"internalType": "address",
							"name": "",
							"type": "address"
						}
					],
					"name": "productVerifications",
					"outputs": [
						{
							"internalType": "uint256",
							"name": "originalValue",
							"type": "uint256"
						},
						{
							"internalType": "uint256",
							"name": "aValue",
							"type": "uint256"
						},
						{
							"internalType": "uint256",
							"name": "bValue",
							"type": "uint256"
						},
						{
							"internalType": "enum EscrowContract.VerificationStatus",
							"name": "status",
							"type": "uint8"
						}
					],
					"stateMutability": "view",
					"type": "function"
				},
				{
					"inputs": [],
					"name": "receiver",
					"outputs": [
						{
							"internalType": "address",
							"name": "",
							"type": "address"
						}
					],
					"stateMutability": "view",
					"type": "function"
				},
				{
					"inputs": [],
					"name": "sender",
					"outputs": [
						{
							"internalType": "address",
							"name": "",
							"type": "address"
						}
					],
					"stateMutability": "view",
					"type": "function"
				},
				{
					"inputs": [],
					"name": "startDelivery",
					"outputs": [],
					"stateMutability": "payable",
					"type": "function"
				},
				{
					"inputs": [],
					"name": "transactionCompleted",
					"outputs": [
						{
							"internalType": "bool",
							"name": "",
							"type": "bool"
						}
					],
					"stateMutability": "view",
					"type": "function"
				},
				{
					"inputs": [
						{
							"internalType": "uint256",
							"name": "_originalValue",
							"type": "uint256"
						},
						{
							"internalType": "uint256",
							"name": "_aValue",
							"type": "uint256"
						},
						{
							"internalType": "uint256",
							"name": "_bValue",
							"type": "uint256"
						}
					],
					"name": "verifyProduct",
					"outputs": [],
					"stateMutability": "payable",
					"type": "function"
				}
			],
			"devdoc": {
				"kind": "dev",
				"methods": {},
				"version": 1
			},
			"evm": {
				"assembly": "    /* \"CAPSTONE/con.sol\":66:5293  contract EscrowContract {\r... */\n  mstore(0x40, 0x80)\n    /* \"CAPSTONE/con.sol\":936:1340  constructor(address _manufacturer, address _deliveryEntity, address _receiver, uint256 _escrowAmount) {\r... */\n  callvalue\n  dup1\n  iszero\n  tag_1\n  jumpi\n  0x00\n  dup1\n  revert\ntag_1:\n  pop\n  mload(0x40)\n  sub(codesize, bytecodeSize)\n  dup1\n  bytecodeSize\n  dup4\n  codecopy\n  dup2\n  dup2\n  add\n  0x40\n  mstore\n  dup2\n  add\n  swap1\n  tag_2\n  swap2\n  swap1\n  tag_3\n  jump\t// in\ntag_2:\n    /* \"CAPSTONE/con.sol\":1064:1077  _manufacturer */\n  dup4\n    /* \"CAPSTONE/con.sol\":1049:1061  manufacturer */\n  0x00\n  dup1\n    /* \"CAPSTONE/con.sol\":1049:1077  manufacturer = _manufacturer */\n  0x0100\n  exp\n  dup2\n  sload\n  dup2\n  0xffffffffffffffffffffffffffffffffffffffff\n  mul\n  not\n  and\n  swap1\n  dup4\n  0xffffffffffffffffffffffffffffffffffffffff\n  and\n  mul\n  or\n  swap1\n  sstore\n  pop\n    /* \"CAPSTONE/con.sol\":1097:1107  msg.sender */\n  caller\n    /* \"CAPSTONE/con.sol\":1088:1094  sender */\n  0x01\n  0x00\n    /* \"CAPSTONE/con.sol\":1088:1107  sender = msg.sender */\n  0x0100\n  exp\n  dup2\n  sload\n  dup2\n  0xffffffffffffffffffffffffffffffffffffffff\n  mul\n  not\n  and\n  swap1\n  dup4\n  0xffffffffffffffffffffffffffffffffffffffff\n  and\n  mul\n  or\n  swap1\n  sstore\n  pop\n    /* \"CAPSTONE/con.sol\":1180:1195  _deliveryEntity */\n  dup3\n    /* \"CAPSTONE/con.sol\":1163:1177  deliveryEntity */\n  0x02\n  0x00\n    /* \"CAPSTONE/con.sol\":1163:1195  deliveryEntity = _deliveryEntity */\n  0x0100\n  exp\n  dup2\n  sload\n  dup2\n  0xffffffffffffffffffffffffffffffffffffffff\n  mul\n  not\n  and\n  swap1\n  dup4\n  0xffffffffffffffffffffffffffffffffffffffff\n  and\n  mul\n  or\n  swap1\n  sstore\n  pop\n    /* \"CAPSTONE/con.sol\":1221:1234  _escrowAmount */\n  dup1\n    /* \"CAPSTONE/con.sol\":1206:1218  escrowAmount */\n  0x04\n    /* \"CAPSTONE/con.sol\":1206:1234  escrowAmount = _escrowAmount */\n  dup2\n  swap1\n  sstore\n  pop\n    /* \"CAPSTONE/con.sol\":1254:1263  _receiver */\n  dup2\n    /* \"CAPSTONE/con.sol\":1245:1253  receiver */\n  0x03\n  0x00\n    /* \"CAPSTONE/con.sol\":1245:1263  receiver=_receiver */\n  0x0100\n  exp\n  dup2\n  sload\n  dup2\n  0xffffffffffffffffffffffffffffffffffffffff\n  mul\n  not\n  and\n  swap1\n  dup4\n  0xffffffffffffffffffffffffffffffffffffffff\n  and\n  mul\n  or\n  swap1\n  sstore\n  pop\n    /* \"CAPSTONE/con.sol\":1297:1302  false */\n  0x00\n    /* \"CAPSTONE/con.sol\":1274:1294  transactionCompleted */\n  0x06\n  0x00\n    /* \"CAPSTONE/con.sol\":1274:1302  transactionCompleted = false */\n  0x0100\n  exp\n  dup2\n  sload\n  dup2\n  0xff\n  mul\n  not\n  and\n  swap1\n  dup4\n  iszero\n  iszero\n  mul\n  or\n  swap1\n  sstore\n  pop\n    /* \"CAPSTONE/con.sol\":1327:1332  false */\n  0x00\n    /* \"CAPSTONE/con.sol\":1313:1324  disputeFlag */\n  0x06\n  0x01\n    /* \"CAPSTONE/con.sol\":1313:1332  disputeFlag = false */\n  0x0100\n  exp\n  dup2\n  sload\n  dup2\n  0xff\n  mul\n  not\n  and\n  swap1\n  dup4\n  iszero\n  iszero\n  mul\n  or\n  swap1\n  sstore\n  pop\n    /* \"CAPSTONE/con.sol\":936:1340  constructor(address _manufacturer, address _deliveryEntity, address _receiver, uint256 _escrowAmount) {\r... */\n  pop\n  pop\n  pop\n  pop\n    /* \"CAPSTONE/con.sol\":66:5293  contract EscrowContract {\r... */\n  jump(tag_6)\n    /* \"#utility.yul\":7:150   */\ntag_8:\n  0x00\n    /* \"#utility.yul\":95:101   */\n  dup2\n    /* \"#utility.yul\":89:102   */\n  mload\n    /* \"#utility.yul\":80:102   */\n  swap1\n  pop\n    /* \"#utility.yul\":111:144   */\n  tag_10\n    /* \"#utility.yul\":138:143   */\n  dup2\n    /* \"#utility.yul\":111:144   */\n  tag_11\n  jump\t// in\ntag_10:\n    /* \"#utility.yul\":70:150   */\n  swap3\n  swap2\n  pop\n  pop\n  jump\t// out\n    /* \"#utility.yul\":156:299   */\ntag_12:\n  0x00\n    /* \"#utility.yul\":244:250   */\n  dup2\n    /* \"#utility.yul\":238:251   */\n  mload\n    /* \"#utility.yul\":229:251   */\n  swap1\n  pop\n    /* \"#utility.yul\":260:293   */\n  tag_14\n    /* \"#utility.yul\":287:292   */\n  dup2\n    /* \"#utility.yul\":260:293   */\n  tag_15\n  jump\t// in\ntag_14:\n    /* \"#utility.yul\":219:299   */\n  swap3\n  swap2\n  pop\n  pop\n  jump\t// out\n    /* \"#utility.yul\":305:1058   */\ntag_3:\n  0x00\n  dup1\n  0x00\n  dup1\n    /* \"#utility.yul\":475:478   */\n  0x80\n    /* \"#utility.yul\":463:472   */\n  dup6\n    /* \"#utility.yul\":454:461   */\n  dup8\n    /* \"#utility.yul\":450:473   */\n  sub\n    /* \"#utility.yul\":446:479   */\n  slt\n    /* \"#utility.yul\":443:445   */\n  iszero\n  tag_17\n  jumpi\n    /* \"#utility.yul\":492:493   */\n  0x00\n    /* \"#utility.yul\":489:490   */\n  dup1\n    /* \"#utility.yul\":482:494   */\n  revert\n    /* \"#utility.yul\":443:445   */\ntag_17:\n    /* \"#utility.yul\":535:536   */\n  0x00\n    /* \"#utility.yul\":560:624   */\n  tag_18\n    /* \"#utility.yul\":616:623   */\n  dup8\n    /* \"#utility.yul\":607:613   */\n  dup3\n    /* \"#utility.yul\":596:605   */\n  dup9\n    /* \"#utility.yul\":592:614   */\n  add\n    /* \"#utility.yul\":560:624   */\n  tag_8\n  jump\t// in\ntag_18:\n    /* \"#utility.yul\":550:624   */\n  swap5\n  pop\n    /* \"#utility.yul\":506:634   */\n  pop\n    /* \"#utility.yul\":673:675   */\n  0x20\n    /* \"#utility.yul\":699:763   */\n  tag_19\n    /* \"#utility.yul\":755:762   */\n  dup8\n    /* \"#utility.yul\":746:752   */\n  dup3\n    /* \"#utility.yul\":735:744   */\n  dup9\n    /* \"#utility.yul\":731:753   */\n  add\n    /* \"#utility.yul\":699:763   */\n  tag_8\n  jump\t// in\ntag_19:\n    /* \"#utility.yul\":689:763   */\n  swap4\n  pop\n    /* \"#utility.yul\":644:773   */\n  pop\n    /* \"#utility.yul\":812:814   */\n  0x40\n    /* \"#utility.yul\":838:902   */\n  tag_20\n    /* \"#utility.yul\":894:901   */\n  dup8\n    /* \"#utility.yul\":885:891   */\n  dup3\n    /* \"#utility.yul\":874:883   */\n  dup9\n    /* \"#utility.yul\":870:892   */\n  add\n    /* \"#utility.yul\":838:902   */\n  tag_8\n  jump\t// in\ntag_20:\n    /* \"#utility.yul\":828:902   */\n  swap3\n  pop\n    /* \"#utility.yul\":783:912   */\n  pop\n    /* \"#utility.yul\":951:953   */\n  0x60\n    /* \"#utility.yul\":977:1041   */\n  tag_21\n    /* \"#utility.yul\":1033:1040   */\n  dup8\n    /* \"#utility.yul\":1024:1030   */\n  dup3\n    /* \"#utility.yul\":1013:1022   */\n  dup9\n    /* \"#utility.yul\":1009:1031   */\n  add\n    /* \"#utility.yul\":977:1041   */\n  tag_12\n  jump\t// in\ntag_21:\n    /* \"#utility.yul\":967:1041   */\n  swap2\n  pop\n    /* \"#utility.yul\":922:1051   */\n  pop\n    /* \"#utility.yul\":433:1058   */\n  swap3\n  swap6\n  swap2\n  swap5\n  pop\n  swap3\n  pop\n  jump\t// out\n    /* \"#utility.yul\":1064:1160   */\ntag_22:\n  0x00\n    /* \"#utility.yul\":1130:1154   */\n  tag_24\n    /* \"#utility.yul\":1148:1153   */\n  dup3\n    /* \"#utility.yul\":1130:1154   */\n  tag_25\n  jump\t// in\ntag_24:\n    /* \"#utility.yul\":1119:1154   */\n  swap1\n  pop\n    /* \"#utility.yul\":1109:1160   */\n  swap2\n  swap1\n  pop\n  jump\t// out\n    /* \"#utility.yul\":1166:1292   */\ntag_25:\n  0x00\n    /* \"#utility.yul\":1243:1285   */\n  0xffffffffffffffffffffffffffffffffffffffff\n    /* \"#utility.yul\":1236:1241   */\n  dup3\n    /* \"#utility.yul\":1232:1286   */\n  and\n    /* \"#utility.yul\":1221:1286   */\n  swap1\n  pop\n    /* \"#utility.yul\":1211:1292   */\n  swap2\n  swap1\n  pop\n  jump\t// out\n    /* \"#utility.yul\":1298:1375   */\ntag_27:\n  0x00\n    /* \"#utility.yul\":1364:1369   */\n  dup2\n    /* \"#utility.yul\":1353:1369   */\n  swap1\n  pop\n    /* \"#utility.yul\":1343:1375   */\n  swap2\n  swap1\n  pop\n  jump\t// out\n    /* \"#utility.yul\":1381:1503   */\ntag_11:\n    /* \"#utility.yul\":1454:1478   */\n  tag_30\n    /* \"#utility.yul\":1472:1477   */\n  dup2\n    /* \"#utility.yul\":1454:1478   */\n  tag_22\n  jump\t// in\ntag_30:\n    /* \"#utility.yul\":1447:1452   */\n  dup2\n    /* \"#utility.yul\":1444:1479   */\n  eq\n    /* \"#utility.yul\":1434:1436   */\n  tag_31\n  jumpi\n    /* \"#utility.yul\":1493:1494   */\n  0x00\n    /* \"#utility.yul\":1490:1491   */\n  dup1\n    /* \"#utility.yul\":1483:1495   */\n  revert\n    /* \"#utility.yul\":1434:1436   */\ntag_31:\n    /* \"#utility.yul\":1424:1503   */\n  pop\n  jump\t// out\n    /* \"#utility.yul\":1509:1631   */\ntag_15:\n    /* \"#utility.yul\":1582:1606   */\n  tag_33\n    /* \"#utility.yul\":1600:1605   */\n  dup2\n    /* \"#utility.yul\":1582:1606   */\n  tag_27\n  jump\t// in\ntag_33:\n    /* \"#utility.yul\":1575:1580   */\n  dup2\n    /* \"#utility.yul\":1572:1607   */\n  eq\n    /* \"#utility.yul\":1562:1564   */\n  tag_34\n  jumpi\n    /* \"#utility.yul\":1621:1622   */\n  0x00\n    /* \"#utility.yul\":1618:1619   */\n  dup1\n    /* \"#utility.yul\":1611:1623   */\n  revert\n    /* \"#utility.yul\":1562:1564   */\ntag_34:\n    /* \"#utility.yul\":1552:1631   */\n  pop\n  jump\t// out\n    /* \"CAPSTONE/con.sol\":66:5293  contract EscrowContract {\r... */\ntag_6:\n  dataSize(sub_0)\n  dup1\n  dataOffset(sub_0)\n  0x00\n  codecopy\n  0x00\n  return\nstop\n\nsub_0: assembly {\n        /* \"CAPSTONE/con.sol\":66:5293  contract EscrowContract {\r... */\n      mstore(0x40, 0x80)\n      jumpi(tag_1, lt(calldatasize, 0x04))\n      shr(0xe0, calldataload(0x00))\n      dup1\n      0xa1ee4181\n      gt\n      tag_16\n      jumpi\n      dup1\n      0xe60678c0\n      gt\n      tag_17\n      jumpi\n      dup1\n      0xe60678c0\n      eq\n      tag_12\n      jumpi\n      dup1\n      0xea5524b8\n      eq\n      tag_13\n      jumpi\n      dup1\n      0xf36f4d02\n      eq\n      tag_14\n      jumpi\n      dup1\n      0xf7260d3e\n      eq\n      tag_15\n      jumpi\n      jump(tag_1)\n    tag_17:\n      dup1\n      0xa1ee4181\n      eq\n      tag_9\n      jumpi\n      dup1\n      0xb67a27ab\n      eq\n      tag_10\n      jumpi\n      dup1\n      0xd3bbf8e5\n      eq\n      tag_11\n      jumpi\n      jump(tag_1)\n    tag_16:\n      dup1\n      0x5e10177b\n      gt\n      tag_18\n      jumpi\n      dup1\n      0x5e10177b\n      eq\n      tag_5\n      jumpi\n      dup1\n      0x67e404ce\n      eq\n      tag_6\n      jumpi\n      dup1\n      0x6f9fb98a\n      eq\n      tag_7\n      jumpi\n      dup1\n      0x74754282\n      eq\n      tag_8\n      jumpi\n      jump(tag_1)\n    tag_18:\n      dup1\n      0x47a7846f\n      eq\n      tag_2\n      jumpi\n      dup1\n      0x532ea841\n      eq\n      tag_3\n      jumpi\n      dup1\n      0x5b22d520\n      eq\n      tag_4\n      jumpi\n    tag_1:\n      0x00\n      dup1\n      revert\n        /* \"CAPSTONE/con.sol\":351:378  uint256 public escrowAmount */\n    tag_2:\n      callvalue\n      dup1\n      iszero\n      tag_19\n      jumpi\n      0x00\n      dup1\n      revert\n    tag_19:\n      pop\n      tag_20\n      tag_21\n      jump\t// in\n    tag_20:\n      mload(0x40)\n      tag_22\n      swap2\n      swap1\n      tag_23\n      jump\t// in\n    tag_22:\n      mload(0x40)\n      dup1\n      swap2\n      sub\n      swap1\n      return\n        /* \"CAPSTONE/con.sol\":480:512  bool public transactionCompleted */\n    tag_3:\n      callvalue\n      dup1\n      iszero\n      tag_24\n      jumpi\n      0x00\n      dup1\n      revert\n    tag_24:\n      pop\n      tag_25\n      tag_26\n      jump\t// in\n    tag_25:\n      mload(0x40)\n      tag_27\n      swap2\n      swap1\n      tag_28\n      jump\t// in\n    tag_27:\n      mload(0x40)\n      dup1\n      swap2\n      sub\n      swap1\n      return\n        /* \"CAPSTONE/con.sol\":1427:1749  function startDelivery() public payable {\r... */\n    tag_4:\n      tag_29\n      tag_30\n      jump\t// in\n    tag_29:\n      stop\n        /* \"CAPSTONE/con.sol\":2310:2709  function confirmDelivery() public payable {\r... */\n    tag_5:\n      tag_31\n      tag_32\n      jump\t// in\n    tag_31:\n      stop\n        /* \"CAPSTONE/con.sol\":166:187  address public sender */\n    tag_6:\n      callvalue\n      dup1\n      iszero\n      tag_33\n      jumpi\n      0x00\n      dup1\n      revert\n    tag_33:\n      pop\n      tag_34\n      tag_35\n      jump\t// in\n    tag_34:\n      mload(0x40)\n      tag_36\n      swap2\n      swap1\n      tag_37\n      jump\t// in\n    tag_36:\n      mload(0x40)\n      dup1\n      swap2\n      sub\n      swap1\n      return\n        /* \"CAPSTONE/con.sol\":5183:5290  function getContractBalance() public view returns (uint256) {\r... */\n    tag_7:\n      callvalue\n      dup1\n      iszero\n      tag_38\n      jumpi\n      0x00\n      dup1\n      revert\n    tag_38:\n      pop\n      tag_39\n      tag_40\n      jump\t// in\n    tag_39:\n      mload(0x40)\n      tag_41\n      swap2\n      swap1\n      tag_23\n      jump\t// in\n    tag_41:\n      mload(0x40)\n      dup1\n      swap2\n      sub\n      swap1\n      return\n        /* \"CAPSTONE/con.sol\":97:124  address public manufacturer */\n    tag_8:\n      callvalue\n      dup1\n      iszero\n      tag_42\n      jumpi\n      0x00\n      dup1\n      revert\n    tag_42:\n      pop\n      tag_43\n      tag_44\n      jump\t// in\n    tag_43:\n      mload(0x40)\n      tag_45\n      swap2\n      swap1\n      tag_37\n      jump\t// in\n    tag_45:\n      mload(0x40)\n      dup1\n      swap2\n      sub\n      swap1\n      return\n        /* \"CAPSTONE/con.sol\":1846:2229  function initiateDelivery() public payable {\r... */\n    tag_9:\n      tag_46\n      tag_47\n      jump\t// in\n    tag_46:\n      stop\n        /* \"CAPSTONE/con.sol\":2825:5118  function verifyProduct(uint256 _originalValue, uint256 _aValue, uint256 _bValue) public payable{\r... */\n    tag_10:\n      tag_48\n      0x04\n      dup1\n      calldatasize\n      sub\n      dup2\n      add\n      swap1\n      tag_49\n      swap2\n      swap1\n      tag_50\n      jump\t// in\n    tag_49:\n      tag_51\n      jump\t// in\n    tag_48:\n      stop\n        /* \"CAPSTONE/con.sol\":412:440  uint256 public deliveryStake */\n    tag_11:\n      callvalue\n      dup1\n      iszero\n      tag_52\n      jumpi\n      0x00\n      dup1\n      revert\n    tag_52:\n      pop\n      tag_53\n      tag_54\n      jump\t// in\n    tag_53:\n      mload(0x40)\n      tag_55\n      swap2\n      swap1\n      tag_23\n      jump\t// in\n    tag_55:\n      mload(0x40)\n      dup1\n      swap2\n      sub\n      swap1\n      return\n        /* \"CAPSTONE/con.sol\":575:598  bool public disputeFlag */\n    tag_12:\n      callvalue\n      dup1\n      iszero\n      tag_56\n      jumpi\n      0x00\n      dup1\n      revert\n    tag_56:\n      pop\n      tag_57\n      tag_58\n      jump\t// in\n    tag_57:\n      mload(0x40)\n      tag_59\n      swap2\n      swap1\n      tag_28\n      jump\t// in\n    tag_59:\n      mload(0x40)\n      dup1\n      swap2\n      sub\n      swap1\n      return\n        /* \"CAPSTONE/con.sol\":222:251  address public deliveryEntity */\n    tag_13:\n      callvalue\n      dup1\n      iszero\n      tag_60\n      jumpi\n      0x00\n      dup1\n      revert\n    tag_60:\n      pop\n      tag_61\n      tag_62\n      jump\t// in\n    tag_61:\n      mload(0x40)\n      tag_63\n      swap2\n      swap1\n      tag_37\n      jump\t// in\n    tag_63:\n      mload(0x40)\n      dup1\n      swap2\n      sub\n      swap1\n      return\n        /* \"CAPSTONE/con.sol\":860:927  mapping(address => ProductVerification) public productVerifications */\n    tag_14:\n      callvalue\n      dup1\n      iszero\n      tag_64\n      jumpi\n      0x00\n      dup1\n      revert\n    tag_64:\n      pop\n      tag_65\n      0x04\n      dup1\n      calldatasize\n      sub\n      dup2\n      add\n      swap1\n      tag_66\n      swap2\n      swap1\n      tag_67\n      jump\t// in\n    tag_66:\n      tag_68\n      jump\t// in\n    tag_65:\n      mload(0x40)\n      tag_69\n      swap5\n      swap4\n      swap3\n      swap2\n      swap1\n      tag_70\n      jump\t// in\n    tag_69:\n      mload(0x40)\n      dup1\n      swap2\n      sub\n      swap1\n      return\n        /* \"CAPSTONE/con.sol\":291:314  address public receiver */\n    tag_15:\n      callvalue\n      dup1\n      iszero\n      tag_71\n      jumpi\n      0x00\n      dup1\n      revert\n    tag_71:\n      pop\n      tag_72\n      tag_73\n      jump\t// in\n    tag_72:\n      mload(0x40)\n      tag_74\n      swap2\n      swap1\n      tag_37\n      jump\t// in\n    tag_74:\n      mload(0x40)\n      dup1\n      swap2\n      sub\n      swap1\n      return\n        /* \"CAPSTONE/con.sol\":351:378  uint256 public escrowAmount */\n    tag_21:\n      sload(0x04)\n      dup2\n      jump\t// out\n        /* \"CAPSTONE/con.sol\":480:512  bool public transactionCompleted */\n    tag_26:\n      0x06\n      0x00\n      swap1\n      sload\n      swap1\n      0x0100\n      exp\n      swap1\n      div\n      0xff\n      and\n      dup2\n      jump\t// out\n        /* \"CAPSTONE/con.sol\":1427:1749  function startDelivery() public payable {\r... */\n    tag_30:\n        /* \"CAPSTONE/con.sol\":1500:1508  receiver */\n      0x03\n      0x00\n      swap1\n      sload\n      swap1\n      0x0100\n      exp\n      swap1\n      div\n      0xffffffffffffffffffffffffffffffffffffffff\n      and\n        /* \"CAPSTONE/con.sol\":1486:1508  msg.sender == receiver */\n      0xffffffffffffffffffffffffffffffffffffffff\n      and\n        /* \"CAPSTONE/con.sol\":1486:1496  msg.sender */\n      caller\n        /* \"CAPSTONE/con.sol\":1486:1508  msg.sender == receiver */\n      0xffffffffffffffffffffffffffffffffffffffff\n      and\n      eq\n        /* \"CAPSTONE/con.sol\":1478:1553  require(msg.sender == receiver, \"Only receiver (B) can start the delivery\") */\n      tag_76\n      jumpi\n      mload(0x40)\n      0x08c379a000000000000000000000000000000000000000000000000000000000\n      dup2\n      mstore\n      0x04\n      add\n      tag_77\n      swap1\n      tag_78\n      jump\t// in\n    tag_77:\n      mload(0x40)\n      dup1\n      swap2\n      sub\n      swap1\n      revert\n    tag_76:\n        /* \"CAPSTONE/con.sol\":1573:1593  transactionCompleted */\n      0x06\n      0x00\n      swap1\n      sload\n      swap1\n      0x0100\n      exp\n      swap1\n      div\n      0xff\n      and\n        /* \"CAPSTONE/con.sol\":1572:1593  !transactionCompleted */\n      iszero\n        /* \"CAPSTONE/con.sol\":1564:1630  require(!transactionCompleted, \"Transaction is already completed\") */\n      tag_79\n      jumpi\n      mload(0x40)\n      0x08c379a000000000000000000000000000000000000000000000000000000000\n      dup2\n      mstore\n      0x04\n      add\n      tag_80\n      swap1\n      tag_81\n      jump\t// in\n    tag_80:\n      mload(0x40)\n      dup1\n      swap2\n      sub\n      swap1\n      revert\n    tag_79:\n        /* \"CAPSTONE/con.sol\":1732:1741  msg.value */\n      callvalue\n        /* \"CAPSTONE/con.sol\":1717:1729  escrowAmount */\n      0x04\n        /* \"CAPSTONE/con.sol\":1717:1741  escrowAmount = msg.value */\n      dup2\n      swap1\n      sstore\n      pop\n        /* \"CAPSTONE/con.sol\":1427:1749  function startDelivery() public payable {\r... */\n      jump\t// out\n        /* \"CAPSTONE/con.sol\":2310:2709  function confirmDelivery() public payable {\r... */\n    tag_32:\n        /* \"CAPSTONE/con.sol\":2385:2399  deliveryEntity */\n      0x02\n      0x00\n      swap1\n      sload\n      swap1\n      0x0100\n      exp\n      swap1\n      div\n      0xffffffffffffffffffffffffffffffffffffffff\n      and\n        /* \"CAPSTONE/con.sol\":2371:2399  msg.sender == deliveryEntity */\n      0xffffffffffffffffffffffffffffffffffffffff\n      and\n        /* \"CAPSTONE/con.sol\":2371:2381  msg.sender */\n      caller\n        /* \"CAPSTONE/con.sol\":2371:2399  msg.sender == deliveryEntity */\n      0xffffffffffffffffffffffffffffffffffffffff\n      and\n      eq\n        /* \"CAPSTONE/con.sol\":2363:2449  require(msg.sender == deliveryEntity, \"Only delivery entity (D) can confirm delivery\") */\n      tag_83\n      jumpi\n      mload(0x40)\n      0x08c379a000000000000000000000000000000000000000000000000000000000\n      dup2\n      mstore\n      0x04\n      add\n      tag_84\n      swap1\n      tag_85\n      jump\t// in\n    tag_84:\n      mload(0x40)\n      dup1\n      swap2\n      sub\n      swap1\n      revert\n    tag_83:\n        /* \"CAPSTONE/con.sol\":2469:2489  transactionCompleted */\n      0x06\n      0x00\n      swap1\n      sload\n      swap1\n      0x0100\n      exp\n      swap1\n      div\n      0xff\n      and\n        /* \"CAPSTONE/con.sol\":2468:2489  !transactionCompleted */\n      iszero\n        /* \"CAPSTONE/con.sol\":2460:2526  require(!transactionCompleted, \"Transaction is already completed\") */\n      tag_86\n      jumpi\n      mload(0x40)\n      0x08c379a000000000000000000000000000000000000000000000000000000000\n      dup2\n      mstore\n      0x04\n      add\n      tag_87\n      swap1\n      tag_81\n      jump\t// in\n    tag_87:\n      mload(0x40)\n      dup1\n      swap2\n      sub\n      swap1\n      revert\n    tag_86:\n        /* \"CAPSTONE/con.sol\":2697:2701  true */\n      0x01\n        /* \"CAPSTONE/con.sol\":2674:2694  transactionCompleted */\n      0x06\n      0x00\n        /* \"CAPSTONE/con.sol\":2674:2701  transactionCompleted = true */\n      0x0100\n      exp\n      dup2\n      sload\n      dup2\n      0xff\n      mul\n      not\n      and\n      swap1\n      dup4\n      iszero\n      iszero\n      mul\n      or\n      swap1\n      sstore\n      pop\n        /* \"CAPSTONE/con.sol\":2310:2709  function confirmDelivery() public payable {\r... */\n      jump\t// out\n        /* \"CAPSTONE/con.sol\":166:187  address public sender */\n    tag_35:\n      0x01\n      0x00\n      swap1\n      sload\n      swap1\n      0x0100\n      exp\n      swap1\n      div\n      0xffffffffffffffffffffffffffffffffffffffff\n      and\n      dup2\n      jump\t// out\n        /* \"CAPSTONE/con.sol\":5183:5290  function getContractBalance() public view returns (uint256) {\r... */\n    tag_40:\n        /* \"CAPSTONE/con.sol\":5234:5241  uint256 */\n      0x00\n        /* \"CAPSTONE/con.sol\":5261:5282  address(this).balance */\n      selfbalance\n        /* \"CAPSTONE/con.sol\":5254:5282  return address(this).balance */\n      swap1\n      pop\n        /* \"CAPSTONE/con.sol\":5183:5290  function getContractBalance() public view returns (uint256) {\r... */\n      swap1\n      jump\t// out\n        /* \"CAPSTONE/con.sol\":97:124  address public manufacturer */\n    tag_44:\n      0x00\n      dup1\n      sload\n      swap1\n      0x0100\n      exp\n      swap1\n      div\n      0xffffffffffffffffffffffffffffffffffffffff\n      and\n      dup2\n      jump\t// out\n        /* \"CAPSTONE/con.sol\":1846:2229  function initiateDelivery() public payable {\r... */\n    tag_47:\n        /* \"CAPSTONE/con.sol\":1922:1936  deliveryEntity */\n      0x02\n      0x00\n      swap1\n      sload\n      swap1\n      0x0100\n      exp\n      swap1\n      div\n      0xffffffffffffffffffffffffffffffffffffffff\n      and\n        /* \"CAPSTONE/con.sol\":1908:1936  msg.sender == deliveryEntity */\n      0xffffffffffffffffffffffffffffffffffffffff\n      and\n        /* \"CAPSTONE/con.sol\":1908:1918  msg.sender */\n      caller\n        /* \"CAPSTONE/con.sol\":1908:1936  msg.sender == deliveryEntity */\n      0xffffffffffffffffffffffffffffffffffffffff\n      and\n      eq\n        /* \"CAPSTONE/con.sol\":1900:1982  require(msg.sender == deliveryEntity, \"Only delivery D can initiate the delivery\") */\n      tag_90\n      jumpi\n      mload(0x40)\n      0x08c379a000000000000000000000000000000000000000000000000000000000\n      dup2\n      mstore\n      0x04\n      add\n      tag_91\n      swap1\n      tag_92\n      jump\t// in\n    tag_91:\n      mload(0x40)\n      dup1\n      swap2\n      sub\n      swap1\n      revert\n    tag_90:\n        /* \"CAPSTONE/con.sol\":2096:2097  0 */\n      0x00\n        /* \"CAPSTONE/con.sol\":2081:2093  escrowAmount */\n      sload(0x04)\n        /* \"CAPSTONE/con.sol\":2081:2097  escrowAmount > 0 */\n      gt\n        /* \"CAPSTONE/con.sol\":2073:2124  require(escrowAmount > 0, \"Escrow amount not paid\") */\n      tag_93\n      jumpi\n      mload(0x40)\n      0x08c379a000000000000000000000000000000000000000000000000000000000\n      dup2\n      mstore\n      0x04\n      add\n      tag_94\n      swap1\n      tag_95\n      jump\t// in\n    tag_94:\n      mload(0x40)\n      dup1\n      swap2\n      sub\n      swap1\n      revert\n    tag_93:\n        /* \"CAPSTONE/con.sol\":2212:2221  msg.value */\n      callvalue\n        /* \"CAPSTONE/con.sol\":2196:2209  deliveryStake */\n      0x05\n        /* \"CAPSTONE/con.sol\":2196:2221  deliveryStake = msg.value */\n      dup2\n      swap1\n      sstore\n      pop\n        /* \"CAPSTONE/con.sol\":1846:2229  function initiateDelivery() public payable {\r... */\n      jump\t// out\n        /* \"CAPSTONE/con.sol\":2825:5118  function verifyProduct(uint256 _originalValue, uint256 _aValue, uint256 _bValue) public payable{\r... */\n    tag_51:\n        /* \"CAPSTONE/con.sol\":2953:2961  receiver */\n      0x03\n      0x00\n      swap1\n      sload\n      swap1\n      0x0100\n      exp\n      swap1\n      div\n      0xffffffffffffffffffffffffffffffffffffffff\n      and\n        /* \"CAPSTONE/con.sol\":2939:2961  msg.sender == receiver */\n      0xffffffffffffffffffffffffffffffffffffffff\n      and\n        /* \"CAPSTONE/con.sol\":2939:2949  msg.sender */\n      caller\n        /* \"CAPSTONE/con.sol\":2939:2961  msg.sender == receiver */\n      0xffffffffffffffffffffffffffffffffffffffff\n      and\n      eq\n        /* \"CAPSTONE/con.sol\":2931:3006  require(msg.sender == receiver, \"Only receiver (B) can verify the product\") */\n      tag_97\n      jumpi\n      mload(0x40)\n      0x08c379a000000000000000000000000000000000000000000000000000000000\n      dup2\n      mstore\n      0x04\n      add\n      tag_98\n      swap1\n      tag_99\n      jump\t// in\n    tag_98:\n      mload(0x40)\n      dup1\n      swap2\n      sub\n      swap1\n      revert\n    tag_97:\n        /* \"CAPSTONE/con.sol\":3025:3045  transactionCompleted */\n      0x06\n      0x00\n      swap1\n      sload\n      swap1\n      0x0100\n      exp\n      swap1\n      div\n      0xff\n      and\n        /* \"CAPSTONE/con.sol\":3017:3077  require(transactionCompleted, \"Delivery hasn't reached yet\") */\n      tag_100\n      jumpi\n      mload(0x40)\n      0x08c379a000000000000000000000000000000000000000000000000000000000\n      dup2\n      mstore\n      0x04\n      add\n      tag_101\n      swap1\n      tag_102\n      jump\t// in\n    tag_101:\n      mload(0x40)\n      dup1\n      swap2\n      sub\n      swap1\n      revert\n    tag_100:\n        /* \"CAPSTONE/con.sol\":3097:3108  disputeFlag */\n      0x06\n      0x01\n      swap1\n      sload\n      swap1\n      0x0100\n      exp\n      swap1\n      div\n      0xff\n      and\n        /* \"CAPSTONE/con.sol\":3096:3108  !disputeFlag */\n      iszero\n        /* \"CAPSTONE/con.sol\":3088:3131  require(!disputeFlag, \"Dispute is ongoing\") */\n      tag_103\n      jumpi\n      mload(0x40)\n      0x08c379a000000000000000000000000000000000000000000000000000000000\n      dup2\n      mstore\n      0x04\n      add\n      tag_104\n      swap1\n      tag_105\n      jump\t// in\n    tag_104:\n      mload(0x40)\n      dup1\n      swap2\n      sub\n      swap1\n      revert\n    tag_103:\n        /* \"CAPSTONE/con.sol\":3231:3238  _aValue */\n      dup2\n        /* \"CAPSTONE/con.sol\":3213:3227  _originalValue */\n      dup4\n        /* \"CAPSTONE/con.sol\":3213:3238  _originalValue == _aValue */\n      eq\n        /* \"CAPSTONE/con.sol\":3213:3260  _originalValue == _aValue && _aValue == _bValue */\n      dup1\n      iszero\n      tag_106\n      jumpi\n      pop\n        /* \"CAPSTONE/con.sol\":3253:3260  _bValue */\n      dup1\n        /* \"CAPSTONE/con.sol\":3242:3249  _aValue */\n      dup3\n        /* \"CAPSTONE/con.sol\":3242:3260  _aValue == _bValue */\n      eq\n        /* \"CAPSTONE/con.sol\":3213:3260  _originalValue == _aValue && _aValue == _bValue */\n    tag_106:\n        /* \"CAPSTONE/con.sol\":3209:5111  if (_originalValue == _aValue && _aValue == _bValue) {\r... */\n      iszero\n      tag_107\n      jumpi\n        /* \"CAPSTONE/con.sol\":3310:3392  ProductVerification(_originalValue, _aValue, _bValue, VerificationStatus.Verified) */\n      mload(0x40)\n      dup1\n      0x80\n      add\n      0x40\n      mstore\n      dup1\n        /* \"CAPSTONE/con.sol\":3330:3344  _originalValue */\n      dup5\n        /* \"CAPSTONE/con.sol\":3310:3392  ProductVerification(_originalValue, _aValue, _bValue, VerificationStatus.Verified) */\n      dup2\n      mstore\n      0x20\n      add\n        /* \"CAPSTONE/con.sol\":3346:3353  _aValue */\n      dup4\n        /* \"CAPSTONE/con.sol\":3310:3392  ProductVerification(_originalValue, _aValue, _bValue, VerificationStatus.Verified) */\n      dup2\n      mstore\n      0x20\n      add\n        /* \"CAPSTONE/con.sol\":3355:3362  _bValue */\n      dup3\n        /* \"CAPSTONE/con.sol\":3310:3392  ProductVerification(_originalValue, _aValue, _bValue, VerificationStatus.Verified) */\n      dup2\n      mstore\n      0x20\n      add\n        /* \"CAPSTONE/con.sol\":3364:3391  VerificationStatus.Verified */\n      0x01\n        /* \"CAPSTONE/con.sol\":3310:3392  ProductVerification(_originalValue, _aValue, _bValue, VerificationStatus.Verified) */\n      0x02\n      dup2\n      gt\n      iszero\n      tag_108\n      jumpi\n      mstore(0x00, 0x4e487b7100000000000000000000000000000000000000000000000000000000)\n      mstore(0x04, 0x21)\n      revert(0x00, 0x24)\n    tag_108:\n      dup2\n      mstore\n      pop\n        /* \"CAPSTONE/con.sol\":3277:3297  productVerifications */\n      0x07\n        /* \"CAPSTONE/con.sol\":3277:3307  productVerifications[receiver] */\n      0x00\n        /* \"CAPSTONE/con.sol\":3298:3306  receiver */\n      0x03\n      0x00\n      swap1\n      sload\n      swap1\n      0x0100\n      exp\n      swap1\n      div\n      0xffffffffffffffffffffffffffffffffffffffff\n      and\n        /* \"CAPSTONE/con.sol\":3277:3307  productVerifications[receiver] */\n      0xffffffffffffffffffffffffffffffffffffffff\n      and\n      0xffffffffffffffffffffffffffffffffffffffff\n      and\n      dup2\n      mstore\n      0x20\n      add\n      swap1\n      dup2\n      mstore\n      0x20\n      add\n      0x00\n      keccak256\n        /* \"CAPSTONE/con.sol\":3277:3392  productVerifications[receiver] = ProductVerification(_originalValue, _aValue, _bValue, VerificationStatus.Verified) */\n      0x00\n      dup3\n      add\n      mload\n      dup2\n      0x00\n      add\n      sstore\n      0x20\n      dup3\n      add\n      mload\n      dup2\n      0x01\n      add\n      sstore\n      0x40\n      dup3\n      add\n      mload\n      dup2\n      0x02\n      add\n      sstore\n      0x60\n      dup3\n      add\n      mload\n      dup2\n      0x03\n      add\n      exp(0x0100, 0x00)\n      dup2\n      sload\n      dup2\n      0xff\n      mul\n      not\n      and\n      swap1\n      dup4\n      0x02\n      dup2\n      gt\n      iszero\n      tag_109\n      jumpi\n      mstore(0x00, 0x4e487b7100000000000000000000000000000000000000000000000000000000)\n      mstore(0x04, 0x21)\n      revert(0x00, 0x24)\n    tag_109:\n      mul\n      or\n      swap1\n      sstore\n      pop\n      swap1\n      pop\n      pop\n        /* \"CAPSTONE/con.sol\":3499:3531  Display(address(sender).balance) */\n      0x425780f25bf8b4c1f6d2ab3f003a0c2770f8b20bc2ea0f023fa3de2944bf1ca9\n        /* \"CAPSTONE/con.sol\":3515:3521  sender */\n      0x01\n      0x00\n      swap1\n      sload\n      swap1\n      0x0100\n      exp\n      swap1\n      div\n      0xffffffffffffffffffffffffffffffffffffffff\n      and\n        /* \"CAPSTONE/con.sol\":3507:3530  address(sender).balance */\n      0xffffffffffffffffffffffffffffffffffffffff\n      and\n      balance\n        /* \"CAPSTONE/con.sol\":3499:3531  Display(address(sender).balance) */\n      mload(0x40)\n      tag_110\n      swap2\n      swap1\n      tag_23\n      jump\t// in\n    tag_110:\n      mload(0x40)\n      dup1\n      swap2\n      sub\n      swap1\n      log1\n        /* \"CAPSTONE/con.sol\":3554:3560  sender */\n      0x01\n      0x00\n      swap1\n      sload\n      swap1\n      0x0100\n      exp\n      swap1\n      div\n      0xffffffffffffffffffffffffffffffffffffffff\n      and\n        /* \"CAPSTONE/con.sol\":3546:3570  payable(sender).transfer */\n      0xffffffffffffffffffffffffffffffffffffffff\n      and\n        /* \"CAPSTONE/con.sol\":3546:3584  payable(sender).transfer(escrowAmount) */\n      0x08fc\n        /* \"CAPSTONE/con.sol\":3571:3583  escrowAmount */\n      sload(0x04)\n        /* \"CAPSTONE/con.sol\":3546:3584  payable(sender).transfer(escrowAmount) */\n      swap1\n      dup2\n      iszero\n      mul\n      swap1\n      mload(0x40)\n      0x00\n      mload(0x40)\n      dup1\n      dup4\n      sub\n      dup2\n      dup6\n      dup9\n      dup9\n      call\n      swap4\n      pop\n      pop\n      pop\n      pop\n      iszero\n      dup1\n      iszero\n      tag_112\n      jumpi\n      returndatasize\n      0x00\n      dup1\n      returndatacopy\n      revert(0x00, returndatasize)\n    tag_112:\n      pop\n        /* \"CAPSTONE/con.sol\":3604:3636  Display(address(sender).balance) */\n      0x425780f25bf8b4c1f6d2ab3f003a0c2770f8b20bc2ea0f023fa3de2944bf1ca9\n        /* \"CAPSTONE/con.sol\":3620:3626  sender */\n      0x01\n      0x00\n      swap1\n      sload\n      swap1\n      0x0100\n      exp\n      swap1\n      div\n      0xffffffffffffffffffffffffffffffffffffffff\n      and\n        /* \"CAPSTONE/con.sol\":3612:3635  address(sender).balance */\n      0xffffffffffffffffffffffffffffffffffffffff\n      and\n      balance\n        /* \"CAPSTONE/con.sol\":3604:3636  Display(address(sender).balance) */\n      mload(0x40)\n      tag_113\n      swap2\n      swap1\n      tag_23\n      jump\t// in\n    tag_113:\n      mload(0x40)\n      dup1\n      swap2\n      sub\n      swap1\n      log1\n        /* \"CAPSTONE/con.sol\":3658:3698  Display(address(deliveryEntity).balance) */\n      0x425780f25bf8b4c1f6d2ab3f003a0c2770f8b20bc2ea0f023fa3de2944bf1ca9\n        /* \"CAPSTONE/con.sol\":3674:3688  deliveryEntity */\n      0x02\n      0x00\n      swap1\n      sload\n      swap1\n      0x0100\n      exp\n      swap1\n      div\n      0xffffffffffffffffffffffffffffffffffffffff\n      and\n        /* \"CAPSTONE/con.sol\":3666:3697  address(deliveryEntity).balance */\n      0xffffffffffffffffffffffffffffffffffffffff\n      and\n      balance\n        /* \"CAPSTONE/con.sol\":3658:3698  Display(address(deliveryEntity).balance) */\n      mload(0x40)\n      tag_114\n      swap2\n      swap1\n      tag_23\n      jump\t// in\n    tag_114:\n      mload(0x40)\n      dup1\n      swap2\n      sub\n      swap1\n      log1\n        /* \"CAPSTONE/con.sol\":3721:3735  deliveryEntity */\n      0x02\n      0x00\n      swap1\n      sload\n      swap1\n      0x0100\n      exp\n      swap1\n      div\n      0xffffffffffffffffffffffffffffffffffffffff\n      and\n        /* \"CAPSTONE/con.sol\":3713:3745  payable(deliveryEntity).transfer */\n      0xffffffffffffffffffffffffffffffffffffffff\n      and\n        /* \"CAPSTONE/con.sol\":3713:3760  payable(deliveryEntity).transfer(deliveryStake) */\n      0x08fc\n        /* \"CAPSTONE/con.sol\":3746:3759  deliveryStake */\n      sload(0x05)\n        /* \"CAPSTONE/con.sol\":3713:3760  payable(deliveryEntity).transfer(deliveryStake) */\n      swap1\n      dup2\n      iszero\n      mul\n      swap1\n      mload(0x40)\n      0x00\n      mload(0x40)\n      dup1\n      dup4\n      sub\n      dup2\n      dup6\n      dup9\n      dup9\n      call\n      swap4\n      pop\n      pop\n      pop\n      pop\n      iszero\n      dup1\n      iszero\n      tag_116\n      jumpi\n      returndatasize\n      0x00\n      dup1\n      returndatacopy\n      revert(0x00, returndatasize)\n    tag_116:\n      pop\n        /* \"CAPSTONE/con.sol\":3780:3820  Display(address(deliveryEntity).balance) */\n      0x425780f25bf8b4c1f6d2ab3f003a0c2770f8b20bc2ea0f023fa3de2944bf1ca9\n        /* \"CAPSTONE/con.sol\":3796:3810  deliveryEntity */\n      0x02\n      0x00\n      swap1\n      sload\n      swap1\n      0x0100\n      exp\n      swap1\n      div\n      0xffffffffffffffffffffffffffffffffffffffff\n      and\n        /* \"CAPSTONE/con.sol\":3788:3819  address(deliveryEntity).balance */\n      0xffffffffffffffffffffffffffffffffffffffff\n      and\n      balance\n        /* \"CAPSTONE/con.sol\":3780:3820  Display(address(deliveryEntity).balance) */\n      mload(0x40)\n      tag_117\n      swap2\n      swap1\n      tag_23\n      jump\t// in\n    tag_117:\n      mload(0x40)\n      dup1\n      swap2\n      sub\n      swap1\n      log1\n        /* \"CAPSTONE/con.sol\":3857:3862  false */\n      0x00\n        /* \"CAPSTONE/con.sol\":3835:3855  transactionCompleted */\n      0x06\n      0x00\n        /* \"CAPSTONE/con.sol\":3835:3862  transactionCompleted= false */\n      0x0100\n      exp\n      dup2\n      sload\n      dup2\n      0xff\n      mul\n      not\n      and\n      swap1\n      dup4\n      iszero\n      iszero\n      mul\n      or\n      swap1\n      sstore\n      pop\n        /* \"CAPSTONE/con.sol\":3209:5111  if (_originalValue == _aValue && _aValue == _bValue) {\r... */\n      jump(tag_118)\n    tag_107:\n        /* \"CAPSTONE/con.sol\":3895:3909  _originalValue */\n      dup3\n        /* \"CAPSTONE/con.sol\":3884:3891  _aValue */\n      dup3\n        /* \"CAPSTONE/con.sol\":3884:3909  _aValue == _originalValue */\n      eq\n        /* \"CAPSTONE/con.sol\":3884:3931  _aValue == _originalValue && _bValue != _aValue */\n      dup1\n      iszero\n      tag_119\n      jumpi\n      pop\n        /* \"CAPSTONE/con.sol\":3924:3931  _aValue */\n      dup2\n        /* \"CAPSTONE/con.sol\":3913:3920  _bValue */\n      dup2\n        /* \"CAPSTONE/con.sol\":3913:3931  _bValue != _aValue */\n      eq\n      iszero\n        /* \"CAPSTONE/con.sol\":3884:3931  _aValue == _originalValue && _bValue != _aValue */\n    tag_119:\n        /* \"CAPSTONE/con.sol\":3880:5111  if (_aValue == _originalValue && _bValue != _aValue) {\r... */\n      iszero\n      tag_120\n      jumpi\n        /* \"CAPSTONE/con.sol\":4045:4049  true */\n      0x01\n        /* \"CAPSTONE/con.sol\":4031:4042  disputeFlag */\n      0x06\n      0x01\n        /* \"CAPSTONE/con.sol\":4031:4049  disputeFlag = true */\n      0x0100\n      exp\n      dup2\n      sload\n      dup2\n      0xff\n      mul\n      not\n      and\n      swap1\n      dup4\n      iszero\n      iszero\n      mul\n      or\n      swap1\n      sstore\n      pop\n        /* \"CAPSTONE/con.sol\":4097:4178  ProductVerification(_originalValue, _aValue, _bValue, VerificationStatus.Dispute) */\n      mload(0x40)\n      dup1\n      0x80\n      add\n      0x40\n      mstore\n      dup1\n        /* \"CAPSTONE/con.sol\":4117:4131  _originalValue */\n      dup5\n        /* \"CAPSTONE/con.sol\":4097:4178  ProductVerification(_originalValue, _aValue, _bValue, VerificationStatus.Dispute) */\n      dup2\n      mstore\n      0x20\n      add\n        /* \"CAPSTONE/con.sol\":4133:4140  _aValue */\n      dup4\n        /* \"CAPSTONE/con.sol\":4097:4178  ProductVerification(_originalValue, _aValue, _bValue, VerificationStatus.Dispute) */\n      dup2\n      mstore\n      0x20\n      add\n        /* \"CAPSTONE/con.sol\":4142:4149  _bValue */\n      dup3\n        /* \"CAPSTONE/con.sol\":4097:4178  ProductVerification(_originalValue, _aValue, _bValue, VerificationStatus.Dispute) */\n      dup2\n      mstore\n      0x20\n      add\n        /* \"CAPSTONE/con.sol\":4151:4177  VerificationStatus.Dispute */\n      0x02\n        /* \"CAPSTONE/con.sol\":4097:4178  ProductVerification(_originalValue, _aValue, _bValue, VerificationStatus.Dispute) */\n      dup1\n      dup2\n      gt\n      iszero\n      tag_121\n      jumpi\n      mstore(0x00, 0x4e487b7100000000000000000000000000000000000000000000000000000000)\n      mstore(0x04, 0x21)\n      revert(0x00, 0x24)\n    tag_121:\n      dup2\n      mstore\n      pop\n        /* \"CAPSTONE/con.sol\":4064:4084  productVerifications */\n      0x07\n        /* \"CAPSTONE/con.sol\":4064:4094  productVerifications[receiver] */\n      0x00\n        /* \"CAPSTONE/con.sol\":4085:4093  receiver */\n      0x03\n      0x00\n      swap1\n      sload\n      swap1\n      0x0100\n      exp\n      swap1\n      div\n      0xffffffffffffffffffffffffffffffffffffffff\n      and\n        /* \"CAPSTONE/con.sol\":4064:4094  productVerifications[receiver] */\n      0xffffffffffffffffffffffffffffffffffffffff\n      and\n      0xffffffffffffffffffffffffffffffffffffffff\n      and\n      dup2\n      mstore\n      0x20\n      add\n      swap1\n      dup2\n      mstore\n      0x20\n      add\n      0x00\n      keccak256\n        /* \"CAPSTONE/con.sol\":4064:4178  productVerifications[receiver] = ProductVerification(_originalValue, _aValue, _bValue, VerificationStatus.Dispute) */\n      0x00\n      dup3\n      add\n      mload\n      dup2\n      0x00\n      add\n      sstore\n      0x20\n      dup3\n      add\n      mload\n      dup2\n      0x01\n      add\n      sstore\n      0x40\n      dup3\n      add\n      mload\n      dup2\n      0x02\n      add\n      sstore\n      0x60\n      dup3\n      add\n      mload\n      dup2\n      0x03\n      add\n      exp(0x0100, 0x00)\n      dup2\n      sload\n      dup2\n      0xff\n      mul\n      not\n      and\n      swap1\n      dup4\n      0x02\n      dup2\n      gt\n      iszero\n      tag_122\n      jumpi\n      mstore(0x00, 0x4e487b7100000000000000000000000000000000000000000000000000000000)\n      mstore(0x04, 0x21)\n      revert(0x00, 0x24)\n    tag_122:\n      mul\n      or\n      swap1\n      sstore\n      pop\n      swap1\n      pop\n      pop\n        /* \"CAPSTONE/con.sol\":4202:4234  Display(address(sender).balance) */\n      0x425780f25bf8b4c1f6d2ab3f003a0c2770f8b20bc2ea0f023fa3de2944bf1ca9\n        /* \"CAPSTONE/con.sol\":4218:4224  sender */\n      0x01\n      0x00\n      swap1\n      sload\n      swap1\n      0x0100\n      exp\n      swap1\n      div\n      0xffffffffffffffffffffffffffffffffffffffff\n      and\n        /* \"CAPSTONE/con.sol\":4210:4233  address(sender).balance */\n      0xffffffffffffffffffffffffffffffffffffffff\n      and\n      balance\n        /* \"CAPSTONE/con.sol\":4202:4234  Display(address(sender).balance) */\n      mload(0x40)\n      tag_123\n      swap2\n      swap1\n      tag_23\n      jump\t// in\n    tag_123:\n      mload(0x40)\n      dup1\n      swap2\n      sub\n      swap1\n      log1\n        /* \"CAPSTONE/con.sol\":4257:4263  sender */\n      0x01\n      0x00\n      swap1\n      sload\n      swap1\n      0x0100\n      exp\n      swap1\n      div\n      0xffffffffffffffffffffffffffffffffffffffff\n      and\n        /* \"CAPSTONE/con.sol\":4249:4273  payable(sender).transfer */\n      0xffffffffffffffffffffffffffffffffffffffff\n      and\n        /* \"CAPSTONE/con.sol\":4249:4288  payable(sender).transfer(deliveryStake) */\n      0x08fc\n        /* \"CAPSTONE/con.sol\":4274:4287  deliveryStake */\n      sload(0x05)\n        /* \"CAPSTONE/con.sol\":4249:4288  payable(sender).transfer(deliveryStake) */\n      swap1\n      dup2\n      iszero\n      mul\n      swap1\n      mload(0x40)\n      0x00\n      mload(0x40)\n      dup1\n      dup4\n      sub\n      dup2\n      dup6\n      dup9\n      dup9\n      call\n      swap4\n      pop\n      pop\n      pop\n      pop\n      iszero\n      dup1\n      iszero\n      tag_125\n      jumpi\n      returndatasize\n      0x00\n      dup1\n      returndatacopy\n      revert(0x00, returndatasize)\n    tag_125:\n      pop\n        /* \"CAPSTONE/con.sol\":4308:4340  Display(address(sender).balance) */\n      0x425780f25bf8b4c1f6d2ab3f003a0c2770f8b20bc2ea0f023fa3de2944bf1ca9\n        /* \"CAPSTONE/con.sol\":4324:4330  sender */\n      0x01\n      0x00\n      swap1\n      sload\n      swap1\n      0x0100\n      exp\n      swap1\n      div\n      0xffffffffffffffffffffffffffffffffffffffff\n      and\n        /* \"CAPSTONE/con.sol\":4316:4339  address(sender).balance */\n      0xffffffffffffffffffffffffffffffffffffffff\n      and\n      balance\n        /* \"CAPSTONE/con.sol\":4308:4340  Display(address(sender).balance) */\n      mload(0x40)\n      tag_126\n      swap2\n      swap1\n      tag_23\n      jump\t// in\n    tag_126:\n      mload(0x40)\n      dup1\n      swap2\n      sub\n      swap1\n      log1\n        /* \"CAPSTONE/con.sol\":4362:4396  Display(address(receiver).balance) */\n      0x425780f25bf8b4c1f6d2ab3f003a0c2770f8b20bc2ea0f023fa3de2944bf1ca9\n        /* \"CAPSTONE/con.sol\":4378:4386  receiver */\n      0x03\n      0x00\n      swap1\n      sload\n      swap1\n      0x0100\n      exp\n      swap1\n      div\n      0xffffffffffffffffffffffffffffffffffffffff\n      and\n        /* \"CAPSTONE/con.sol\":4370:4395  address(receiver).balance */\n      0xffffffffffffffffffffffffffffffffffffffff\n      and\n      balance\n        /* \"CAPSTONE/con.sol\":4362:4396  Display(address(receiver).balance) */\n      mload(0x40)\n      tag_127\n      swap2\n      swap1\n      tag_23\n      jump\t// in\n    tag_127:\n      mload(0x40)\n      dup1\n      swap2\n      sub\n      swap1\n      log1\n        /* \"CAPSTONE/con.sol\":4419:4427  receiver */\n      0x03\n      0x00\n      swap1\n      sload\n      swap1\n      0x0100\n      exp\n      swap1\n      div\n      0xffffffffffffffffffffffffffffffffffffffff\n      and\n        /* \"CAPSTONE/con.sol\":4411:4437  payable(receiver).transfer */\n      0xffffffffffffffffffffffffffffffffffffffff\n      and\n        /* \"CAPSTONE/con.sol\":4411:4451  payable(receiver).transfer(escrowAmount) */\n      0x08fc\n        /* \"CAPSTONE/con.sol\":4438:4450  escrowAmount */\n      sload(0x04)\n        /* \"CAPSTONE/con.sol\":4411:4451  payable(receiver).transfer(escrowAmount) */\n      swap1\n      dup2\n      iszero\n      mul\n      swap1\n      mload(0x40)\n      0x00\n      mload(0x40)\n      dup1\n      dup4\n      sub\n      dup2\n      dup6\n      dup9\n      dup9\n      call\n      swap4\n      pop\n      pop\n      pop\n      pop\n      iszero\n      dup1\n      iszero\n      tag_129\n      jumpi\n      returndatasize\n      0x00\n      dup1\n      returndatacopy\n      revert(0x00, returndatasize)\n    tag_129:\n      pop\n        /* \"CAPSTONE/con.sol\":4471:4505  Display(address(receiver).balance) */\n      0x425780f25bf8b4c1f6d2ab3f003a0c2770f8b20bc2ea0f023fa3de2944bf1ca9\n        /* \"CAPSTONE/con.sol\":4487:4495  receiver */\n      0x03\n      0x00\n      swap1\n      sload\n      swap1\n      0x0100\n      exp\n      swap1\n      div\n      0xffffffffffffffffffffffffffffffffffffffff\n      and\n        /* \"CAPSTONE/con.sol\":4479:4504  address(receiver).balance */\n      0xffffffffffffffffffffffffffffffffffffffff\n      and\n      balance\n        /* \"CAPSTONE/con.sol\":4471:4505  Display(address(receiver).balance) */\n      mload(0x40)\n      tag_130\n      swap2\n      swap1\n      tag_23\n      jump\t// in\n    tag_130:\n      mload(0x40)\n      dup1\n      swap2\n      sub\n      swap1\n      log1\n        /* \"CAPSTONE/con.sol\":4602:4607  false */\n      0x00\n        /* \"CAPSTONE/con.sol\":4580:4600  transactionCompleted */\n      0x06\n      0x00\n        /* \"CAPSTONE/con.sol\":4580:4607  transactionCompleted= false */\n      0x0100\n      exp\n      dup2\n      sload\n      dup2\n      0xff\n      mul\n      not\n      and\n      swap1\n      dup4\n      iszero\n      iszero\n      mul\n      or\n      swap1\n      sstore\n      pop\n        /* \"CAPSTONE/con.sol\":3880:5111  if (_aValue == _originalValue && _bValue != _aValue) {\r... */\n      jump(tag_131)\n    tag_120:\n        /* \"CAPSTONE/con.sol\":4745:4749  true */\n      0x01\n        /* \"CAPSTONE/con.sol\":4731:4742  disputeFlag */\n      0x06\n      0x01\n        /* \"CAPSTONE/con.sol\":4731:4749  disputeFlag = true */\n      0x0100\n      exp\n      dup2\n      sload\n      dup2\n      0xff\n      mul\n      not\n      and\n      swap1\n      dup4\n      iszero\n      iszero\n      mul\n      or\n      swap1\n      sstore\n      pop\n        /* \"CAPSTONE/con.sol\":4797:4878  ProductVerification(_originalValue, _aValue, _bValue, VerificationStatus.Dispute) */\n      mload(0x40)\n      dup1\n      0x80\n      add\n      0x40\n      mstore\n      dup1\n        /* \"CAPSTONE/con.sol\":4817:4831  _originalValue */\n      dup5\n        /* \"CAPSTONE/con.sol\":4797:4878  ProductVerification(_originalValue, _aValue, _bValue, VerificationStatus.Dispute) */\n      dup2\n      mstore\n      0x20\n      add\n        /* \"CAPSTONE/con.sol\":4833:4840  _aValue */\n      dup4\n        /* \"CAPSTONE/con.sol\":4797:4878  ProductVerification(_originalValue, _aValue, _bValue, VerificationStatus.Dispute) */\n      dup2\n      mstore\n      0x20\n      add\n        /* \"CAPSTONE/con.sol\":4842:4849  _bValue */\n      dup3\n        /* \"CAPSTONE/con.sol\":4797:4878  ProductVerification(_originalValue, _aValue, _bValue, VerificationStatus.Dispute) */\n      dup2\n      mstore\n      0x20\n      add\n        /* \"CAPSTONE/con.sol\":4851:4877  VerificationStatus.Dispute */\n      0x02\n        /* \"CAPSTONE/con.sol\":4797:4878  ProductVerification(_originalValue, _aValue, _bValue, VerificationStatus.Dispute) */\n      dup1\n      dup2\n      gt\n      iszero\n      tag_132\n      jumpi\n      mstore(0x00, 0x4e487b7100000000000000000000000000000000000000000000000000000000)\n      mstore(0x04, 0x21)\n      revert(0x00, 0x24)\n    tag_132:\n      dup2\n      mstore\n      pop\n        /* \"CAPSTONE/con.sol\":4764:4784  productVerifications */\n      0x07\n        /* \"CAPSTONE/con.sol\":4764:4794  productVerifications[receiver] */\n      0x00\n        /* \"CAPSTONE/con.sol\":4785:4793  receiver */\n      0x03\n      0x00\n      swap1\n      sload\n      swap1\n      0x0100\n      exp\n      swap1\n      div\n      0xffffffffffffffffffffffffffffffffffffffff\n      and\n        /* \"CAPSTONE/con.sol\":4764:4794  productVerifications[receiver] */\n      0xffffffffffffffffffffffffffffffffffffffff\n      and\n      0xffffffffffffffffffffffffffffffffffffffff\n      and\n      dup2\n      mstore\n      0x20\n      add\n      swap1\n      dup2\n      mstore\n      0x20\n      add\n      0x00\n      keccak256\n        /* \"CAPSTONE/con.sol\":4764:4878  productVerifications[receiver] = ProductVerification(_originalValue, _aValue, _bValue, VerificationStatus.Dispute) */\n      0x00\n      dup3\n      add\n      mload\n      dup2\n      0x00\n      add\n      sstore\n      0x20\n      dup3\n      add\n      mload\n      dup2\n      0x01\n      add\n      sstore\n      0x40\n      dup3\n      add\n      mload\n      dup2\n      0x02\n      add\n      sstore\n      0x60\n      dup3\n      add\n      mload\n      dup2\n      0x03\n      add\n      exp(0x0100, 0x00)\n      dup2\n      sload\n      dup2\n      0xff\n      mul\n      not\n      and\n      swap1\n      dup4\n      0x02\n      dup2\n      gt\n      iszero\n      tag_133\n      jumpi\n      mstore(0x00, 0x4e487b7100000000000000000000000000000000000000000000000000000000)\n      mstore(0x04, 0x21)\n      revert(0x00, 0x24)\n    tag_133:\n      mul\n      or\n      swap1\n      sstore\n      pop\n      swap1\n      pop\n      pop\n        /* \"CAPSTONE/con.sol\":4903:4917  deliveryEntity */\n      0x02\n      0x00\n      swap1\n      sload\n      swap1\n      0x0100\n      exp\n      swap1\n      div\n      0xffffffffffffffffffffffffffffffffffffffff\n      and\n        /* \"CAPSTONE/con.sol\":4895:4927  payable(deliveryEntity).transfer */\n      0xffffffffffffffffffffffffffffffffffffffff\n      and\n        /* \"CAPSTONE/con.sol\":4895:4942  payable(deliveryEntity).transfer(deliveryStake) */\n      0x08fc\n        /* \"CAPSTONE/con.sol\":4928:4941  deliveryStake */\n      sload(0x05)\n        /* \"CAPSTONE/con.sol\":4895:4942  payable(deliveryEntity).transfer(deliveryStake) */\n      swap1\n      dup2\n      iszero\n      mul\n      swap1\n      mload(0x40)\n      0x00\n      mload(0x40)\n      dup1\n      dup4\n      sub\n      dup2\n      dup6\n      dup9\n      dup9\n      call\n      swap4\n      pop\n      pop\n      pop\n      pop\n      iszero\n      dup1\n      iszero\n      tag_135\n      jumpi\n      returndatasize\n      0x00\n      dup1\n      returndatacopy\n      revert(0x00, returndatasize)\n    tag_135:\n      pop\n        /* \"CAPSTONE/con.sol\":4965:4973  receiver */\n      0x03\n      0x00\n      swap1\n      sload\n      swap1\n      0x0100\n      exp\n      swap1\n      div\n      0xffffffffffffffffffffffffffffffffffffffff\n      and\n        /* \"CAPSTONE/con.sol\":4957:4983  payable(receiver).transfer */\n      0xffffffffffffffffffffffffffffffffffffffff\n      and\n        /* \"CAPSTONE/con.sol\":4957:4997  payable(receiver).transfer(escrowAmount) */\n      0x08fc\n        /* \"CAPSTONE/con.sol\":4984:4996  escrowAmount */\n      sload(0x04)\n        /* \"CAPSTONE/con.sol\":4957:4997  payable(receiver).transfer(escrowAmount) */\n      swap1\n      dup2\n      iszero\n      mul\n      swap1\n      mload(0x40)\n      0x00\n      mload(0x40)\n      dup1\n      dup4\n      sub\n      dup2\n      dup6\n      dup9\n      dup9\n      call\n      swap4\n      pop\n      pop\n      pop\n      pop\n      iszero\n      dup1\n      iszero\n      tag_137\n      jumpi\n      returndatasize\n      0x00\n      dup1\n      returndatacopy\n      revert(0x00, returndatasize)\n    tag_137:\n      pop\n        /* \"CAPSTONE/con.sol\":5094:5099  false */\n      0x00\n        /* \"CAPSTONE/con.sol\":5072:5092  transactionCompleted */\n      0x06\n      0x00\n        /* \"CAPSTONE/con.sol\":5072:5099  transactionCompleted= false */\n      0x0100\n      exp\n      dup2\n      sload\n      dup2\n      0xff\n      mul\n      not\n      and\n      swap1\n      dup4\n      iszero\n      iszero\n      mul\n      or\n      swap1\n      sstore\n      pop\n        /* \"CAPSTONE/con.sol\":3880:5111  if (_aValue == _originalValue && _bValue != _aValue) {\r... */\n    tag_131:\n        /* \"CAPSTONE/con.sol\":3209:5111  if (_originalValue == _aValue && _aValue == _bValue) {\r... */\n    tag_118:\n        /* \"CAPSTONE/con.sol\":2825:5118  function verifyProduct(uint256 _originalValue, uint256 _aValue, uint256 _bValue) public payable{\r... */\n      pop\n      pop\n      pop\n      jump\t// out\n        /* \"CAPSTONE/con.sol\":412:440  uint256 public deliveryStake */\n    tag_54:\n      sload(0x05)\n      dup2\n      jump\t// out\n        /* \"CAPSTONE/con.sol\":575:598  bool public disputeFlag */\n    tag_58:\n      0x06\n      0x01\n      swap1\n      sload\n      swap1\n      0x0100\n      exp\n      swap1\n      div\n      0xff\n      and\n      dup2\n      jump\t// out\n        /* \"CAPSTONE/con.sol\":222:251  address public deliveryEntity */\n    tag_62:\n      0x02\n      0x00\n      swap1\n      sload\n      swap1\n      0x0100\n      exp\n      swap1\n      div\n      0xffffffffffffffffffffffffffffffffffffffff\n      and\n      dup2\n      jump\t// out\n        /* \"CAPSTONE/con.sol\":860:927  mapping(address => ProductVerification) public productVerifications */\n    tag_68:\n      mstore(0x20, 0x07)\n      dup1\n      0x00\n      mstore\n      keccak256(0x00, 0x40)\n      0x00\n      swap2\n      pop\n      swap1\n      pop\n      dup1\n      0x00\n      add\n      sload\n      swap1\n      dup1\n      0x01\n      add\n      sload\n      swap1\n      dup1\n      0x02\n      add\n      sload\n      swap1\n      dup1\n      0x03\n      add\n      0x00\n      swap1\n      sload\n      swap1\n      0x0100\n      exp\n      swap1\n      div\n      0xff\n      and\n      swap1\n      pop\n      dup5\n      jump\t// out\n        /* \"CAPSTONE/con.sol\":291:314  address public receiver */\n    tag_73:\n      0x03\n      0x00\n      swap1\n      sload\n      swap1\n      0x0100\n      exp\n      swap1\n      div\n      0xffffffffffffffffffffffffffffffffffffffff\n      and\n      dup2\n      jump\t// out\n        /* \"#utility.yul\":7:146   */\n    tag_139:\n      0x00\n        /* \"#utility.yul\":91:97   */\n      dup2\n        /* \"#utility.yul\":78:98   */\n      calldataload\n        /* \"#utility.yul\":69:98   */\n      swap1\n      pop\n        /* \"#utility.yul\":107:140   */\n      tag_141\n        /* \"#utility.yul\":134:139   */\n      dup2\n        /* \"#utility.yul\":107:140   */\n      tag_142\n      jump\t// in\n    tag_141:\n        /* \"#utility.yul\":59:146   */\n      swap3\n      swap2\n      pop\n      pop\n      jump\t// out\n        /* \"#utility.yul\":152:291   */\n    tag_143:\n      0x00\n        /* \"#utility.yul\":236:242   */\n      dup2\n        /* \"#utility.yul\":223:243   */\n      calldataload\n        /* \"#utility.yul\":214:243   */\n      swap1\n      pop\n        /* \"#utility.yul\":252:285   */\n      tag_145\n        /* \"#utility.yul\":279:284   */\n      dup2\n        /* \"#utility.yul\":252:285   */\n      tag_146\n      jump\t// in\n    tag_145:\n        /* \"#utility.yul\":204:291   */\n      swap3\n      swap2\n      pop\n      pop\n      jump\t// out\n        /* \"#utility.yul\":297:559   */\n    tag_67:\n      0x00\n        /* \"#utility.yul\":405:407   */\n      0x20\n        /* \"#utility.yul\":393:402   */\n      dup3\n        /* \"#utility.yul\":384:391   */\n      dup5\n        /* \"#utility.yul\":380:403   */\n      sub\n        /* \"#utility.yul\":376:408   */\n      slt\n        /* \"#utility.yul\":373:375   */\n      iszero\n      tag_148\n      jumpi\n        /* \"#utility.yul\":421:422   */\n      0x00\n        /* \"#utility.yul\":418:419   */\n      dup1\n        /* \"#utility.yul\":411:423   */\n      revert\n        /* \"#utility.yul\":373:375   */\n    tag_148:\n        /* \"#utility.yul\":464:465   */\n      0x00\n        /* \"#utility.yul\":489:542   */\n      tag_149\n        /* \"#utility.yul\":534:541   */\n      dup5\n        /* \"#utility.yul\":525:531   */\n      dup3\n        /* \"#utility.yul\":514:523   */\n      dup6\n        /* \"#utility.yul\":510:532   */\n      add\n        /* \"#utility.yul\":489:542   */\n      tag_139\n      jump\t// in\n    tag_149:\n        /* \"#utility.yul\":479:542   */\n      swap2\n      pop\n        /* \"#utility.yul\":435:552   */\n      pop\n        /* \"#utility.yul\":363:559   */\n      swap3\n      swap2\n      pop\n      pop\n      jump\t// out\n        /* \"#utility.yul\":565:1117   */\n    tag_50:\n      0x00\n      dup1\n      0x00\n        /* \"#utility.yul\":707:709   */\n      0x60\n        /* \"#utility.yul\":695:704   */\n      dup5\n        /* \"#utility.yul\":686:693   */\n      dup7\n        /* \"#utility.yul\":682:705   */\n      sub\n        /* \"#utility.yul\":678:710   */\n      slt\n        /* \"#utility.yul\":675:677   */\n      iszero\n      tag_151\n      jumpi\n        /* \"#utility.yul\":723:724   */\n      0x00\n        /* \"#utility.yul\":720:721   */\n      dup1\n        /* \"#utility.yul\":713:725   */\n      revert\n        /* \"#utility.yul\":675:677   */\n    tag_151:\n        /* \"#utility.yul\":766:767   */\n      0x00\n        /* \"#utility.yul\":791:844   */\n      tag_152\n        /* \"#utility.yul\":836:843   */\n      dup7\n        /* \"#utility.yul\":827:833   */\n      dup3\n        /* \"#utility.yul\":816:825   */\n      dup8\n        /* \"#utility.yul\":812:834   */\n      add\n        /* \"#utility.yul\":791:844   */\n      tag_143\n      jump\t// in\n    tag_152:\n        /* \"#utility.yul\":781:844   */\n      swap4\n      pop\n        /* \"#utility.yul\":737:854   */\n      pop\n        /* \"#utility.yul\":893:895   */\n      0x20\n        /* \"#utility.yul\":919:972   */\n      tag_153\n        /* \"#utility.yul\":964:971   */\n      dup7\n        /* \"#utility.yul\":955:961   */\n      dup3\n        /* \"#utility.yul\":944:953   */\n      dup8\n        /* \"#utility.yul\":940:962   */\n      add\n        /* \"#utility.yul\":919:972   */\n      tag_143\n      jump\t// in\n    tag_153:\n        /* \"#utility.yul\":909:972   */\n      swap3\n      pop\n        /* \"#utility.yul\":864:982   */\n      pop\n        /* \"#utility.yul\":1021:1023   */\n      0x40\n        /* \"#utility.yul\":1047:1100   */\n      tag_154\n        /* \"#utility.yul\":1092:1099   */\n      dup7\n        /* \"#utility.yul\":1083:1089   */\n      dup3\n        /* \"#utility.yul\":1072:1081   */\n      dup8\n        /* \"#utility.yul\":1068:1090   */\n      add\n        /* \"#utility.yul\":1047:1100   */\n      tag_143\n      jump\t// in\n    tag_154:\n        /* \"#utility.yul\":1037:1100   */\n      swap2\n      pop\n        /* \"#utility.yul\":992:1110   */\n      pop\n        /* \"#utility.yul\":665:1117   */\n      swap3\n      pop\n      swap3\n      pop\n      swap3\n      jump\t// out\n        /* \"#utility.yul\":1123:1241   */\n    tag_155:\n        /* \"#utility.yul\":1210:1234   */\n      tag_157\n        /* \"#utility.yul\":1228:1233   */\n      dup2\n        /* \"#utility.yul\":1210:1234   */\n      tag_158\n      jump\t// in\n    tag_157:\n        /* \"#utility.yul\":1205:1208   */\n      dup3\n        /* \"#utility.yul\":1198:1235   */\n      mstore\n        /* \"#utility.yul\":1188:1241   */\n      pop\n      pop\n      jump\t// out\n        /* \"#utility.yul\":1247:1356   */\n    tag_159:\n        /* \"#utility.yul\":1328:1349   */\n      tag_161\n        /* \"#utility.yul\":1343:1348   */\n      dup2\n        /* \"#utility.yul\":1328:1349   */\n      tag_162\n      jump\t// in\n    tag_161:\n        /* \"#utility.yul\":1323:1326   */\n      dup3\n        /* \"#utility.yul\":1316:1350   */\n      mstore\n        /* \"#utility.yul\":1306:1356   */\n      pop\n      pop\n      jump\t// out\n        /* \"#utility.yul\":1362:1531   */\n    tag_163:\n        /* \"#utility.yul\":1468:1524   */\n      tag_165\n        /* \"#utility.yul\":1518:1523   */\n      dup2\n        /* \"#utility.yul\":1468:1524   */\n      tag_166\n      jump\t// in\n    tag_165:\n        /* \"#utility.yul\":1463:1466   */\n      dup3\n        /* \"#utility.yul\":1456:1525   */\n      mstore\n        /* \"#utility.yul\":1446:1531   */\n      pop\n      pop\n      jump\t// out\n        /* \"#utility.yul\":1537:1909   */\n    tag_167:\n      0x00\n        /* \"#utility.yul\":1700:1767   */\n      tag_169\n        /* \"#utility.yul\":1764:1766   */\n      0x28\n        /* \"#utility.yul\":1759:1762   */\n      dup4\n        /* \"#utility.yul\":1700:1767   */\n      tag_170\n      jump\t// in\n    tag_169:\n        /* \"#utility.yul\":1693:1767   */\n      swap2\n      pop\n        /* \"#utility.yul\":1797:1831   */\n      0x4f6e6c79207265636569766572202842292063616e2073746172742074686520\n        /* \"#utility.yul\":1793:1794   */\n      0x00\n        /* \"#utility.yul\":1788:1791   */\n      dup4\n        /* \"#utility.yul\":1784:1795   */\n      add\n        /* \"#utility.yul\":1777:1832   */\n      mstore\n        /* \"#utility.yul\":1863:1873   */\n      0x64656c6976657279000000000000000000000000000000000000000000000000\n        /* \"#utility.yul\":1858:1860   */\n      0x20\n        /* \"#utility.yul\":1853:1856   */\n      dup4\n        /* \"#utility.yul\":1849:1861   */\n      add\n        /* \"#utility.yul\":1842:1874   */\n      mstore\n        /* \"#utility.yul\":1900:1902   */\n      0x40\n        /* \"#utility.yul\":1895:1898   */\n      dup3\n        /* \"#utility.yul\":1891:1903   */\n      add\n        /* \"#utility.yul\":1884:1903   */\n      swap1\n      pop\n        /* \"#utility.yul\":1683:1909   */\n      swap2\n      swap1\n      pop\n      jump\t// out\n        /* \"#utility.yul\":1915:2287   */\n    tag_171:\n      0x00\n        /* \"#utility.yul\":2078:2145   */\n      tag_173\n        /* \"#utility.yul\":2142:2144   */\n      0x28\n        /* \"#utility.yul\":2137:2140   */\n      dup4\n        /* \"#utility.yul\":2078:2145   */\n      tag_170\n      jump\t// in\n    tag_173:\n        /* \"#utility.yul\":2071:2145   */\n      swap2\n      pop\n        /* \"#utility.yul\":2175:2209   */\n      0x4f6e6c79207265636569766572202842292063616e2076657269667920746865\n        /* \"#utility.yul\":2171:2172   */\n      0x00\n        /* \"#utility.yul\":2166:2169   */\n      dup4\n        /* \"#utility.yul\":2162:2173   */\n      add\n        /* \"#utility.yul\":2155:2210   */\n      mstore\n        /* \"#utility.yul\":2241:2251   */\n      0x2070726f64756374000000000000000000000000000000000000000000000000\n        /* \"#utility.yul\":2236:2238   */\n      0x20\n        /* \"#utility.yul\":2231:2234   */\n      dup4\n        /* \"#utility.yul\":2227:2239   */\n      add\n        /* \"#utility.yul\":2220:2252   */\n      mstore\n        /* \"#utility.yul\":2278:2280   */\n      0x40\n        /* \"#utility.yul\":2273:2276   */\n      dup3\n        /* \"#utility.yul\":2269:2281   */\n      add\n        /* \"#utility.yul\":2262:2281   */\n      swap1\n      pop\n        /* \"#utility.yul\":2061:2287   */\n      swap2\n      swap1\n      pop\n      jump\t// out\n        /* \"#utility.yul\":2293:2618   */\n    tag_174:\n      0x00\n        /* \"#utility.yul\":2456:2523   */\n      tag_176\n        /* \"#utility.yul\":2520:2522   */\n      0x1b\n        /* \"#utility.yul\":2515:2518   */\n      dup4\n        /* \"#utility.yul\":2456:2523   */\n      tag_170\n      jump\t// in\n    tag_176:\n        /* \"#utility.yul\":2449:2523   */\n      swap2\n      pop\n        /* \"#utility.yul\":2553:2582   */\n      0x44656c6976657279206861736e27742072656163686564207965740000000000\n        /* \"#utility.yul\":2549:2550   */\n      0x00\n        /* \"#utility.yul\":2544:2547   */\n      dup4\n        /* \"#utility.yul\":2540:2551   */\n      add\n        /* \"#utility.yul\":2533:2583   */\n      mstore\n        /* \"#utility.yul\":2609:2611   */\n      0x20\n        /* \"#utility.yul\":2604:2607   */\n      dup3\n        /* \"#utility.yul\":2600:2612   */\n      add\n        /* \"#utility.yul\":2593:2612   */\n      swap1\n      pop\n        /* \"#utility.yul\":2439:2618   */\n      swap2\n      swap1\n      pop\n      jump\t// out\n        /* \"#utility.yul\":2624:2997   */\n    tag_177:\n      0x00\n        /* \"#utility.yul\":2787:2854   */\n      tag_179\n        /* \"#utility.yul\":2851:2853   */\n      0x29\n        /* \"#utility.yul\":2846:2849   */\n      dup4\n        /* \"#utility.yul\":2787:2854   */\n      tag_170\n      jump\t// in\n    tag_179:\n        /* \"#utility.yul\":2780:2854   */\n      swap2\n      pop\n        /* \"#utility.yul\":2884:2918   */\n      0x4f6e6c792064656c697665727920442063616e20696e69746961746520746865\n        /* \"#utility.yul\":2880:2881   */\n      0x00\n        /* \"#utility.yul\":2875:2878   */\n      dup4\n        /* \"#utility.yul\":2871:2882   */\n      add\n        /* \"#utility.yul\":2864:2919   */\n      mstore\n        /* \"#utility.yul\":2950:2961   */\n      0x2064656c69766572790000000000000000000000000000000000000000000000\n        /* \"#utility.yul\":2945:2947   */\n      0x20\n        /* \"#utility.yul\":2940:2943   */\n      dup4\n        /* \"#utility.yul\":2936:2948   */\n      add\n        /* \"#utility.yul\":2929:2962   */\n      mstore\n        /* \"#utility.yul\":2988:2990   */\n      0x40\n        /* \"#utility.yul\":2983:2986   */\n      dup3\n        /* \"#utility.yul\":2979:2991   */\n      add\n        /* \"#utility.yul\":2972:2991   */\n      swap1\n      pop\n        /* \"#utility.yul\":2770:2997   */\n      swap2\n      swap1\n      pop\n      jump\t// out\n        /* \"#utility.yul\":3003:3333   */\n    tag_180:\n      0x00\n        /* \"#utility.yul\":3166:3233   */\n      tag_182\n        /* \"#utility.yul\":3230:3232   */\n      0x20\n        /* \"#utility.yul\":3225:3228   */\n      dup4\n        /* \"#utility.yul\":3166:3233   */\n      tag_170\n      jump\t// in\n    tag_182:\n        /* \"#utility.yul\":3159:3233   */\n      swap2\n      pop\n        /* \"#utility.yul\":3263:3297   */\n      0x5472616e73616374696f6e20697320616c726561647920636f6d706c65746564\n        /* \"#utility.yul\":3259:3260   */\n      0x00\n        /* \"#utility.yul\":3254:3257   */\n      dup4\n        /* \"#utility.yul\":3250:3261   */\n      add\n        /* \"#utility.yul\":3243:3298   */\n      mstore\n        /* \"#utility.yul\":3324:3326   */\n      0x20\n        /* \"#utility.yul\":3319:3322   */\n      dup3\n        /* \"#utility.yul\":3315:3327   */\n      add\n        /* \"#utility.yul\":3308:3327   */\n      swap1\n      pop\n        /* \"#utility.yul\":3149:3333   */\n      swap2\n      swap1\n      pop\n      jump\t// out\n        /* \"#utility.yul\":3339:3659   */\n    tag_183:\n      0x00\n        /* \"#utility.yul\":3502:3569   */\n      tag_185\n        /* \"#utility.yul\":3566:3568   */\n      0x16\n        /* \"#utility.yul\":3561:3564   */\n      dup4\n        /* \"#utility.yul\":3502:3569   */\n      tag_170\n      jump\t// in\n    tag_185:\n        /* \"#utility.yul\":3495:3569   */\n      swap2\n      pop\n        /* \"#utility.yul\":3599:3623   */\n      0x457363726f7720616d6f756e74206e6f74207061696400000000000000000000\n        /* \"#utility.yul\":3595:3596   */\n      0x00\n        /* \"#utility.yul\":3590:3593   */\n      dup4\n        /* \"#utility.yul\":3586:3597   */\n      add\n        /* \"#utility.yul\":3579:3624   */\n      mstore\n        /* \"#utility.yul\":3650:3652   */\n      0x20\n        /* \"#utility.yul\":3645:3648   */\n      dup3\n        /* \"#utility.yul\":3641:3653   */\n      add\n        /* \"#utility.yul\":3634:3653   */\n      swap1\n      pop\n        /* \"#utility.yul\":3485:3659   */\n      swap2\n      swap1\n      pop\n      jump\t// out\n        /* \"#utility.yul\":3665:4042   */\n    tag_186:\n      0x00\n        /* \"#utility.yul\":3828:3895   */\n      tag_188\n        /* \"#utility.yul\":3892:3894   */\n      0x2d\n        /* \"#utility.yul\":3887:3890   */\n      dup4\n        /* \"#utility.yul\":3828:3895   */\n      tag_170\n      jump\t// in\n    tag_188:\n        /* \"#utility.yul\":3821:3895   */\n      swap2\n      pop\n        /* \"#utility.yul\":3925:3959   */\n      0x4f6e6c792064656c697665727920656e74697479202844292063616e20636f6e\n        /* \"#utility.yul\":3921:3922   */\n      0x00\n        /* \"#utility.yul\":3916:3919   */\n      dup4\n        /* \"#utility.yul\":3912:3923   */\n      add\n        /* \"#utility.yul\":3905:3960   */\n      mstore\n        /* \"#utility.yul\":3991:4006   */\n      0x6669726d2064656c697665727900000000000000000000000000000000000000\n        /* \"#utility.yul\":3986:3988   */\n      0x20\n        /* \"#utility.yul\":3981:3984   */\n      dup4\n        /* \"#utility.yul\":3977:3989   */\n      add\n        /* \"#utility.yul\":3970:4007   */\n      mstore\n        /* \"#utility.yul\":4033:4035   */\n      0x40\n        /* \"#utility.yul\":4028:4031   */\n      dup3\n        /* \"#utility.yul\":4024:4036   */\n      add\n        /* \"#utility.yul\":4017:4036   */\n      swap1\n      pop\n        /* \"#utility.yul\":3811:4042   */\n      swap2\n      swap1\n      pop\n      jump\t// out\n        /* \"#utility.yul\":4048:4364   */\n    tag_189:\n      0x00\n        /* \"#utility.yul\":4211:4278   */\n      tag_191\n        /* \"#utility.yul\":4275:4277   */\n      0x12\n        /* \"#utility.yul\":4270:4273   */\n      dup4\n        /* \"#utility.yul\":4211:4278   */\n      tag_170\n      jump\t// in\n    tag_191:\n        /* \"#utility.yul\":4204:4278   */\n      swap2\n      pop\n        /* \"#utility.yul\":4308:4328   */\n      0x44697370757465206973206f6e676f696e670000000000000000000000000000\n        /* \"#utility.yul\":4304:4305   */\n      0x00\n        /* \"#utility.yul\":4299:4302   */\n      dup4\n        /* \"#utility.yul\":4295:4306   */\n      add\n        /* \"#utility.yul\":4288:4329   */\n      mstore\n        /* \"#utility.yul\":4355:4357   */\n      0x20\n        /* \"#utility.yul\":4350:4353   */\n      dup3\n        /* \"#utility.yul\":4346:4358   */\n      add\n        /* \"#utility.yul\":4339:4358   */\n      swap1\n      pop\n        /* \"#utility.yul\":4194:4364   */\n      swap2\n      swap1\n      pop\n      jump\t// out\n        /* \"#utility.yul\":4370:4488   */\n    tag_192:\n        /* \"#utility.yul\":4457:4481   */\n      tag_194\n        /* \"#utility.yul\":4475:4480   */\n      dup2\n        /* \"#utility.yul\":4457:4481   */\n      tag_195\n      jump\t// in\n    tag_194:\n        /* \"#utility.yul\":4452:4455   */\n      dup3\n        /* \"#utility.yul\":4445:4482   */\n      mstore\n        /* \"#utility.yul\":4435:4488   */\n      pop\n      pop\n      jump\t// out\n        /* \"#utility.yul\":4494:4716   */\n    tag_37:\n      0x00\n        /* \"#utility.yul\":4625:4627   */\n      0x20\n        /* \"#utility.yul\":4614:4623   */\n      dup3\n        /* \"#utility.yul\":4610:4628   */\n      add\n        /* \"#utility.yul\":4602:4628   */\n      swap1\n      pop\n        /* \"#utility.yul\":4638:4709   */\n      tag_197\n        /* \"#utility.yul\":4706:4707   */\n      0x00\n        /* \"#utility.yul\":4695:4704   */\n      dup4\n        /* \"#utility.yul\":4691:4708   */\n      add\n        /* \"#utility.yul\":4682:4688   */\n      dup5\n        /* \"#utility.yul\":4638:4709   */\n      tag_155\n      jump\t// in\n    tag_197:\n        /* \"#utility.yul\":4592:4716   */\n      swap3\n      swap2\n      pop\n      pop\n      jump\t// out\n        /* \"#utility.yul\":4722:4932   */\n    tag_28:\n      0x00\n        /* \"#utility.yul\":4847:4849   */\n      0x20\n        /* \"#utility.yul\":4836:4845   */\n      dup3\n        /* \"#utility.yul\":4832:4850   */\n      add\n        /* \"#utility.yul\":4824:4850   */\n      swap1\n      pop\n        /* \"#utility.yul\":4860:4925   */\n      tag_199\n        /* \"#utility.yul\":4922:4923   */\n      0x00\n        /* \"#utility.yul\":4911:4920   */\n      dup4\n        /* \"#utility.yul\":4907:4924   */\n      add\n        /* \"#utility.yul\":4898:4904   */\n      dup5\n        /* \"#utility.yul\":4860:4925   */\n      tag_159\n      jump\t// in\n    tag_199:\n        /* \"#utility.yul\":4814:4932   */\n      swap3\n      swap2\n      pop\n      pop\n      jump\t// out\n        /* \"#utility.yul\":4938:5357   */\n    tag_78:\n      0x00\n        /* \"#utility.yul\":5142:5144   */\n      0x20\n        /* \"#utility.yul\":5131:5140   */\n      dup3\n        /* \"#utility.yul\":5127:5145   */\n      add\n        /* \"#utility.yul\":5119:5145   */\n      swap1\n      pop\n        /* \"#utility.yul\":5191:5200   */\n      dup2\n        /* \"#utility.yul\":5185:5189   */\n      dup2\n        /* \"#utility.yul\":5181:5201   */\n      sub\n        /* \"#utility.yul\":5177:5178   */\n      0x00\n        /* \"#utility.yul\":5166:5175   */\n      dup4\n        /* \"#utility.yul\":5162:5179   */\n      add\n        /* \"#utility.yul\":5155:5202   */\n      mstore\n        /* \"#utility.yul\":5219:5350   */\n      tag_201\n        /* \"#utility.yul\":5345:5349   */\n      dup2\n        /* \"#utility.yul\":5219:5350   */\n      tag_167\n      jump\t// in\n    tag_201:\n        /* \"#utility.yul\":5211:5350   */\n      swap1\n      pop\n        /* \"#utility.yul\":5109:5357   */\n      swap2\n      swap1\n      pop\n      jump\t// out\n        /* \"#utility.yul\":5363:5782   */\n    tag_99:\n      0x00\n        /* \"#utility.yul\":5567:5569   */\n      0x20\n        /* \"#utility.yul\":5556:5565   */\n      dup3\n        /* \"#utility.yul\":5552:5570   */\n      add\n        /* \"#utility.yul\":5544:5570   */\n      swap1\n      pop\n        /* \"#utility.yul\":5616:5625   */\n      dup2\n        /* \"#utility.yul\":5610:5614   */\n      dup2\n        /* \"#utility.yul\":5606:5626   */\n      sub\n        /* \"#utility.yul\":5602:5603   */\n      0x00\n        /* \"#utility.yul\":5591:5600   */\n      dup4\n        /* \"#utility.yul\":5587:5604   */\n      add\n        /* \"#utility.yul\":5580:5627   */\n      mstore\n        /* \"#utility.yul\":5644:5775   */\n      tag_203\n        /* \"#utility.yul\":5770:5774   */\n      dup2\n        /* \"#utility.yul\":5644:5775   */\n      tag_171\n      jump\t// in\n    tag_203:\n        /* \"#utility.yul\":5636:5775   */\n      swap1\n      pop\n        /* \"#utility.yul\":5534:5782   */\n      swap2\n      swap1\n      pop\n      jump\t// out\n        /* \"#utility.yul\":5788:6207   */\n    tag_102:\n      0x00\n        /* \"#utility.yul\":5992:5994   */\n      0x20\n        /* \"#utility.yul\":5981:5990   */\n      dup3\n        /* \"#utility.yul\":5977:5995   */\n      add\n        /* \"#utility.yul\":5969:5995   */\n      swap1\n      pop\n        /* \"#utility.yul\":6041:6050   */\n      dup2\n        /* \"#utility.yul\":6035:6039   */\n      dup2\n        /* \"#utility.yul\":6031:6051   */\n      sub\n        /* \"#utility.yul\":6027:6028   */\n      0x00\n        /* \"#utility.yul\":6016:6025   */\n      dup4\n        /* \"#utility.yul\":6012:6029   */\n      add\n        /* \"#utility.yul\":6005:6052   */\n      mstore\n        /* \"#utility.yul\":6069:6200   */\n      tag_205\n        /* \"#utility.yul\":6195:6199   */\n      dup2\n        /* \"#utility.yul\":6069:6200   */\n      tag_174\n      jump\t// in\n    tag_205:\n        /* \"#utility.yul\":6061:6200   */\n      swap1\n      pop\n        /* \"#utility.yul\":5959:6207   */\n      swap2\n      swap1\n      pop\n      jump\t// out\n        /* \"#utility.yul\":6213:6632   */\n    tag_92:\n      0x00\n        /* \"#utility.yul\":6417:6419   */\n      0x20\n        /* \"#utility.yul\":6406:6415   */\n      dup3\n        /* \"#utility.yul\":6402:6420   */\n      add\n        /* \"#utility.yul\":6394:6420   */\n      swap1\n      pop\n        /* \"#utility.yul\":6466:6475   */\n      dup2\n        /* \"#utility.yul\":6460:6464   */\n      dup2\n        /* \"#utility.yul\":6456:6476   */\n      sub\n        /* \"#utility.yul\":6452:6453   */\n      0x00\n        /* \"#utility.yul\":6441:6450   */\n      dup4\n        /* \"#utility.yul\":6437:6454   */\n      add\n        /* \"#utility.yul\":6430:6477   */\n      mstore\n        /* \"#utility.yul\":6494:6625   */\n      tag_207\n        /* \"#utility.yul\":6620:6624   */\n      dup2\n        /* \"#utility.yul\":6494:6625   */\n      tag_177\n      jump\t// in\n    tag_207:\n        /* \"#utility.yul\":6486:6625   */\n      swap1\n      pop\n        /* \"#utility.yul\":6384:6632   */\n      swap2\n      swap1\n      pop\n      jump\t// out\n        /* \"#utility.yul\":6638:7057   */\n    tag_81:\n      0x00\n        /* \"#utility.yul\":6842:6844   */\n      0x20\n        /* \"#utility.yul\":6831:6840   */\n      dup3\n        /* \"#utility.yul\":6827:6845   */\n      add\n        /* \"#utility.yul\":6819:6845   */\n      swap1\n      pop\n        /* \"#utility.yul\":6891:6900   */\n      dup2\n        /* \"#utility.yul\":6885:6889   */\n      dup2\n        /* \"#utility.yul\":6881:6901   */\n      sub\n        /* \"#utility.yul\":6877:6878   */\n      0x00\n        /* \"#utility.yul\":6866:6875   */\n      dup4\n        /* \"#utility.yul\":6862:6879   */\n      add\n        /* \"#utility.yul\":6855:6902   */\n      mstore\n        /* \"#utility.yul\":6919:7050   */\n      tag_209\n        /* \"#utility.yul\":7045:7049   */\n      dup2\n        /* \"#utility.yul\":6919:7050   */\n      tag_180\n      jump\t// in\n    tag_209:\n        /* \"#utility.yul\":6911:7050   */\n      swap1\n      pop\n        /* \"#utility.yul\":6809:7057   */\n      swap2\n      swap1\n      pop\n      jump\t// out\n        /* \"#utility.yul\":7063:7482   */\n    tag_95:\n      0x00\n        /* \"#utility.yul\":7267:7269   */\n      0x20\n        /* \"#utility.yul\":7256:7265   */\n      dup3\n        /* \"#utility.yul\":7252:7270   */\n      add\n        /* \"#utility.yul\":7244:7270   */\n      swap1\n      pop\n        /* \"#utility.yul\":7316:7325   */\n      dup2\n        /* \"#utility.yul\":7310:7314   */\n      dup2\n        /* \"#utility.yul\":7306:7326   */\n      sub\n        /* \"#utility.yul\":7302:7303   */\n      0x00\n        /* \"#utility.yul\":7291:7300   */\n      dup4\n        /* \"#utility.yul\":7287:7304   */\n      add\n        /* \"#utility.yul\":7280:7327   */\n      mstore\n        /* \"#utility.yul\":7344:7475   */\n      tag_211\n        /* \"#utility.yul\":7470:7474   */\n      dup2\n        /* \"#utility.yul\":7344:7475   */\n      tag_183\n      jump\t// in\n    tag_211:\n        /* \"#utility.yul\":7336:7475   */\n      swap1\n      pop\n        /* \"#utility.yul\":7234:7482   */\n      swap2\n      swap1\n      pop\n      jump\t// out\n        /* \"#utility.yul\":7488:7907   */\n    tag_85:\n      0x00\n        /* \"#utility.yul\":7692:7694   */\n      0x20\n        /* \"#utility.yul\":7681:7690   */\n      dup3\n        /* \"#utility.yul\":7677:7695   */\n      add\n        /* \"#utility.yul\":7669:7695   */\n      swap1\n      pop\n        /* \"#utility.yul\":7741:7750   */\n      dup2\n        /* \"#utility.yul\":7735:7739   */\n      dup2\n        /* \"#utility.yul\":7731:7751   */\n      sub\n        /* \"#utility.yul\":7727:7728   */\n      0x00\n        /* \"#utility.yul\":7716:7725   */\n      dup4\n        /* \"#utility.yul\":7712:7729   */\n      add\n        /* \"#utility.yul\":7705:7752   */\n      mstore\n        /* \"#utility.yul\":7769:7900   */\n      tag_213\n        /* \"#utility.yul\":7895:7899   */\n      dup2\n        /* \"#utility.yul\":7769:7900   */\n      tag_186\n      jump\t// in\n    tag_213:\n        /* \"#utility.yul\":7761:7900   */\n      swap1\n      pop\n        /* \"#utility.yul\":7659:7907   */\n      swap2\n      swap1\n      pop\n      jump\t// out\n        /* \"#utility.yul\":7913:8332   */\n    tag_105:\n      0x00\n        /* \"#utility.yul\":8117:8119   */\n      0x20\n        /* \"#utility.yul\":8106:8115   */\n      dup3\n        /* \"#utility.yul\":8102:8120   */\n      add\n        /* \"#utility.yul\":8094:8120   */\n      swap1\n      pop\n        /* \"#utility.yul\":8166:8175   */\n      dup2\n        /* \"#utility.yul\":8160:8164   */\n      dup2\n        /* \"#utility.yul\":8156:8176   */\n      sub\n        /* \"#utility.yul\":8152:8153   */\n      0x00\n        /* \"#utility.yul\":8141:8150   */\n      dup4\n        /* \"#utility.yul\":8137:8154   */\n      add\n        /* \"#utility.yul\":8130:8177   */\n      mstore\n        /* \"#utility.yul\":8194:8325   */\n      tag_215\n        /* \"#utility.yul\":8320:8324   */\n      dup2\n        /* \"#utility.yul\":8194:8325   */\n      tag_189\n      jump\t// in\n    tag_215:\n        /* \"#utility.yul\":8186:8325   */\n      swap1\n      pop\n        /* \"#utility.yul\":8084:8332   */\n      swap2\n      swap1\n      pop\n      jump\t// out\n        /* \"#utility.yul\":8338:8560   */\n    tag_23:\n      0x00\n        /* \"#utility.yul\":8469:8471   */\n      0x20\n        /* \"#utility.yul\":8458:8467   */\n      dup3\n        /* \"#utility.yul\":8454:8472   */\n      add\n        /* \"#utility.yul\":8446:8472   */\n      swap1\n      pop\n        /* \"#utility.yul\":8482:8553   */\n      tag_217\n        /* \"#utility.yul\":8550:8551   */\n      0x00\n        /* \"#utility.yul\":8539:8548   */\n      dup4\n        /* \"#utility.yul\":8535:8552   */\n      add\n        /* \"#utility.yul\":8526:8532   */\n      dup5\n        /* \"#utility.yul\":8482:8553   */\n      tag_192\n      jump\t// in\n    tag_217:\n        /* \"#utility.yul\":8436:8560   */\n      swap3\n      swap2\n      pop\n      pop\n      jump\t// out\n        /* \"#utility.yul\":8566:9157   */\n    tag_70:\n      0x00\n        /* \"#utility.yul\":8800:8803   */\n      0x80\n        /* \"#utility.yul\":8789:8798   */\n      dup3\n        /* \"#utility.yul\":8785:8804   */\n      add\n        /* \"#utility.yul\":8777:8804   */\n      swap1\n      pop\n        /* \"#utility.yul\":8814:8885   */\n      tag_219\n        /* \"#utility.yul\":8882:8883   */\n      0x00\n        /* \"#utility.yul\":8871:8880   */\n      dup4\n        /* \"#utility.yul\":8867:8884   */\n      add\n        /* \"#utility.yul\":8858:8864   */\n      dup8\n        /* \"#utility.yul\":8814:8885   */\n      tag_192\n      jump\t// in\n    tag_219:\n        /* \"#utility.yul\":8895:8967   */\n      tag_220\n        /* \"#utility.yul\":8963:8965   */\n      0x20\n        /* \"#utility.yul\":8952:8961   */\n      dup4\n        /* \"#utility.yul\":8948:8966   */\n      add\n        /* \"#utility.yul\":8939:8945   */\n      dup7\n        /* \"#utility.yul\":8895:8967   */\n      tag_192\n      jump\t// in\n    tag_220:\n        /* \"#utility.yul\":8977:9049   */\n      tag_221\n        /* \"#utility.yul\":9045:9047   */\n      0x40\n        /* \"#utility.yul\":9034:9043   */\n      dup4\n        /* \"#utility.yul\":9030:9048   */\n      add\n        /* \"#utility.yul\":9021:9027   */\n      dup6\n        /* \"#utility.yul\":8977:9049   */\n      tag_192\n      jump\t// in\n    tag_221:\n        /* \"#utility.yul\":9059:9150   */\n      tag_222\n        /* \"#utility.yul\":9146:9148   */\n      0x60\n        /* \"#utility.yul\":9135:9144   */\n      dup4\n        /* \"#utility.yul\":9131:9149   */\n      add\n        /* \"#utility.yul\":9122:9128   */\n      dup5\n        /* \"#utility.yul\":9059:9150   */\n      tag_163\n      jump\t// in\n    tag_222:\n        /* \"#utility.yul\":8767:9157   */\n      swap6\n      swap5\n      pop\n      pop\n      pop\n      pop\n      pop\n      jump\t// out\n        /* \"#utility.yul\":9163:9332   */\n    tag_170:\n      0x00\n        /* \"#utility.yul\":9281:9287   */\n      dup3\n        /* \"#utility.yul\":9276:9279   */\n      dup3\n        /* \"#utility.yul\":9269:9288   */\n      mstore\n        /* \"#utility.yul\":9321:9325   */\n      0x20\n        /* \"#utility.yul\":9316:9319   */\n      dup3\n        /* \"#utility.yul\":9312:9326   */\n      add\n        /* \"#utility.yul\":9297:9326   */\n      swap1\n      pop\n        /* \"#utility.yul\":9259:9332   */\n      swap3\n      swap2\n      pop\n      pop\n      jump\t// out\n        /* \"#utility.yul\":9338:9434   */\n    tag_158:\n      0x00\n        /* \"#utility.yul\":9404:9428   */\n      tag_225\n        /* \"#utility.yul\":9422:9427   */\n      dup3\n        /* \"#utility.yul\":9404:9428   */\n      tag_226\n      jump\t// in\n    tag_225:\n        /* \"#utility.yul\":9393:9428   */\n      swap1\n      pop\n        /* \"#utility.yul\":9383:9434   */\n      swap2\n      swap1\n      pop\n      jump\t// out\n        /* \"#utility.yul\":9440:9530   */\n    tag_162:\n      0x00\n        /* \"#utility.yul\":9517:9522   */\n      dup2\n        /* \"#utility.yul\":9510:9523   */\n      iszero\n        /* \"#utility.yul\":9503:9524   */\n      iszero\n        /* \"#utility.yul\":9492:9524   */\n      swap1\n      pop\n        /* \"#utility.yul\":9482:9530   */\n      swap2\n      swap1\n      pop\n      jump\t// out\n        /* \"#utility.yul\":9536:9689   */\n    tag_228:\n      0x00\n        /* \"#utility.yul\":9623:9628   */\n      dup2\n        /* \"#utility.yul\":9612:9628   */\n      swap1\n      pop\n        /* \"#utility.yul\":9629:9683   */\n      tag_230\n        /* \"#utility.yul\":9677:9682   */\n      dup3\n        /* \"#utility.yul\":9629:9683   */\n      tag_231\n      jump\t// in\n    tag_230:\n        /* \"#utility.yul\":9602:9689   */\n      swap2\n      swap1\n      pop\n      jump\t// out\n        /* \"#utility.yul\":9695:9821   */\n    tag_226:\n      0x00\n        /* \"#utility.yul\":9772:9814   */\n      0xffffffffffffffffffffffffffffffffffffffff\n        /* \"#utility.yul\":9765:9770   */\n      dup3\n        /* \"#utility.yul\":9761:9815   */\n      and\n        /* \"#utility.yul\":9750:9815   */\n      swap1\n      pop\n        /* \"#utility.yul\":9740:9821   */\n      swap2\n      swap1\n      pop\n      jump\t// out\n        /* \"#utility.yul\":9827:9904   */\n    tag_195:\n      0x00\n        /* \"#utility.yul\":9893:9898   */\n      dup2\n        /* \"#utility.yul\":9882:9898   */\n      swap1\n      pop\n        /* \"#utility.yul\":9872:9904   */\n      swap2\n      swap1\n      pop\n      jump\t// out\n        /* \"#utility.yul\":9910:10063   */\n    tag_166:\n      0x00\n        /* \"#utility.yul\":10012:10057   */\n      tag_235\n        /* \"#utility.yul\":10051:10056   */\n      dup3\n        /* \"#utility.yul\":10012:10057   */\n      tag_228\n      jump\t// in\n    tag_235:\n        /* \"#utility.yul\":9999:10057   */\n      swap1\n      pop\n        /* \"#utility.yul\":9989:10063   */\n      swap2\n      swap1\n      pop\n      jump\t// out\n        /* \"#utility.yul\":10069:10249   */\n    tag_236:\n        /* \"#utility.yul\":10117:10194   */\n      0x4e487b7100000000000000000000000000000000000000000000000000000000\n        /* \"#utility.yul\":10114:10115   */\n      0x00\n        /* \"#utility.yul\":10107:10195   */\n      mstore\n        /* \"#utility.yul\":10214:10218   */\n      0x21\n        /* \"#utility.yul\":10211:10212   */\n      0x04\n        /* \"#utility.yul\":10204:10219   */\n      mstore\n        /* \"#utility.yul\":10238:10242   */\n      0x24\n        /* \"#utility.yul\":10235:10236   */\n      0x00\n        /* \"#utility.yul\":10228:10243   */\n      revert\n        /* \"#utility.yul\":10255:10381   */\n    tag_231:\n        /* \"#utility.yul\":10349:10350   */\n      0x03\n        /* \"#utility.yul\":10342:10347   */\n      dup2\n        /* \"#utility.yul\":10339:10351   */\n      lt\n        /* \"#utility.yul\":10329:10331   */\n      tag_239\n      jumpi\n        /* \"#utility.yul\":10355:10373   */\n      tag_240\n      tag_236\n      jump\t// in\n    tag_240:\n        /* \"#utility.yul\":10329:10331   */\n    tag_239:\n        /* \"#utility.yul\":10319:10381   */\n      pop\n      jump\t// out\n        /* \"#utility.yul\":10387:10509   */\n    tag_142:\n        /* \"#utility.yul\":10460:10484   */\n      tag_242\n        /* \"#utility.yul\":10478:10483   */\n      dup2\n        /* \"#utility.yul\":10460:10484   */\n      tag_158\n      jump\t// in\n    tag_242:\n        /* \"#utility.yul\":10453:10458   */\n      dup2\n        /* \"#utility.yul\":10450:10485   */\n      eq\n        /* \"#utility.yul\":10440:10442   */\n      tag_243\n      jumpi\n        /* \"#utility.yul\":10499:10500   */\n      0x00\n        /* \"#utility.yul\":10496:10497   */\n      dup1\n        /* \"#utility.yul\":10489:10501   */\n      revert\n        /* \"#utility.yul\":10440:10442   */\n    tag_243:\n        /* \"#utility.yul\":10430:10509   */\n      pop\n      jump\t// out\n        /* \"#utility.yul\":10515:10637   */\n    tag_146:\n        /* \"#utility.yul\":10588:10612   */\n      tag_245\n        /* \"#utility.yul\":10606:10611   */\n      dup2\n        /* \"#utility.yul\":10588:10612   */\n      tag_195\n      jump\t// in\n    tag_245:\n        /* \"#utility.yul\":10581:10586   */\n      dup2\n        /* \"#utility.yul\":10578:10613   */\n      eq\n        /* \"#utility.yul\":10568:10570   */\n      tag_246\n      jumpi\n        /* \"#utility.yul\":10627:10628   */\n      0x00\n        /* \"#utility.yul\":10624:10625   */\n      dup1\n        /* \"#utility.yul\":10617:10629   */\n      revert\n        /* \"#utility.yul\":10568:10570   */\n    tag_246:\n        /* \"#utility.yul\":10558:10637   */\n      pop\n      jump\t// out\n\n    auxdata: 0xa26469706673582212203b09646ebd8f8bcd1bac82239630f78458f9c7e50db798a0b99be3540dc504e564736f6c63430008000033\n}\n",
				"bytecode": {
					"linkReferences": {},
					"object": "60806040523480156200001157600080fd5b5060405162001b0238038062001b028339818101604052810190620000379190620001af565b836000806101000a81548173ffffffffffffffffffffffffffffffffffffffff021916908373ffffffffffffffffffffffffffffffffffffffff16021790555033600160006101000a81548173ffffffffffffffffffffffffffffffffffffffff021916908373ffffffffffffffffffffffffffffffffffffffff16021790555082600260006101000a81548173ffffffffffffffffffffffffffffffffffffffff021916908373ffffffffffffffffffffffffffffffffffffffff1602179055508060048190555081600360006101000a81548173ffffffffffffffffffffffffffffffffffffffff021916908373ffffffffffffffffffffffffffffffffffffffff1602179055506000600660006101000a81548160ff0219169083151502179055506000600660016101000a81548160ff021916908315150217905550505050506200028d565b600081519050620001928162000259565b92915050565b600081519050620001a98162000273565b92915050565b60008060008060808587031215620001c657600080fd5b6000620001d68782880162000181565b9450506020620001e98782880162000181565b9350506040620001fc8782880162000181565b92505060606200020f8782880162000198565b91505092959194509250565b600062000228826200022f565b9050919050565b600073ffffffffffffffffffffffffffffffffffffffff82169050919050565b6000819050919050565b62000264816200021b565b81146200027057600080fd5b50565b6200027e816200024f565b81146200028a57600080fd5b50565b611865806200029d6000396000f3fe6080604052600436106100dd5760003560e01c8063a1ee41811161007f578063e60678c011610059578063e60678c01461021e578063ea5524b814610249578063f36f4d0214610274578063f7260d3e146102b4576100dd565b8063a1ee4181146101cd578063b67a27ab146101d7578063d3bbf8e5146101f3576100dd565b80635e10177b116100bb5780635e10177b1461014257806367e404ce1461014c5780636f9fb98a1461017757806374754282146101a2576100dd565b806347a7846f146100e2578063532ea8411461010d5780635b22d52014610138575b600080fd5b3480156100ee57600080fd5b506100f76102df565b60405161010491906116e0565b60405180910390f35b34801561011957600080fd5b506101226102e5565b60405161012f91906115c5565b60405180910390f35b6101406102f8565b005b61014a6103e1565b005b34801561015857600080fd5b506101616104de565b60405161016e91906115aa565b60405180910390f35b34801561018357600080fd5b5061018c610504565b60405161019991906116e0565b60405180910390f35b3480156101ae57600080fd5b506101b761050c565b6040516101c491906115aa565b60405180910390f35b6101d5610530565b005b6101f160048036038101906101ec9190611287565b61060e565b005b3480156101ff57600080fd5b50610208611192565b60405161021591906116e0565b60405180910390f35b34801561022a57600080fd5b50610233611198565b60405161024091906115c5565b60405180910390f35b34801561025557600080fd5b5061025e6111ab565b60405161026b91906115aa565b60405180910390f35b34801561028057600080fd5b5061029b6004803603810190610296919061125e565b6111d1565b6040516102ab94939291906116fb565b60405180910390f35b3480156102c057600080fd5b506102c961120e565b6040516102d691906115aa565b60405180910390f35b60045481565b600660009054906101000a900460ff1681565b600360009054906101000a900473ffffffffffffffffffffffffffffffffffffffff1673ffffffffffffffffffffffffffffffffffffffff163373ffffffffffffffffffffffffffffffffffffffff1614610388576040517f08c379a000000000000000000000000000000000000000000000000000000000815260040161037f906115e0565b60405180910390fd5b600660009054906101000a900460ff16156103d8576040517f08c379a00000000000000000000000000000000000000000000000000000000081526004016103cf90611660565b60405180910390fd5b34600481905550565b600260009054906101000a900473ffffffffffffffffffffffffffffffffffffffff1673ffffffffffffffffffffffffffffffffffffffff163373ffffffffffffffffffffffffffffffffffffffff1614610471576040517f08c379a0000000000000000000000000000000000000000000000000000000008152600401610468906116a0565b60405180910390fd5b600660009054906101000a900460ff16156104c1576040517f08c379a00000000000000000000000000000000000000000000000000000000081526004016104b890611660565b60405180910390fd5b6001600660006101000a81548160ff021916908315150217905550565b600160009054906101000a900473ffffffffffffffffffffffffffffffffffffffff1681565b600047905090565b60008054906101000a900473ffffffffffffffffffffffffffffffffffffffff1681565b600260009054906101000a900473ffffffffffffffffffffffffffffffffffffffff1673ffffffffffffffffffffffffffffffffffffffff163373ffffffffffffffffffffffffffffffffffffffff16146105c0576040517f08c379a00000000000000000000000000000000000000000000000000000000081526004016105b790611640565b60405180910390fd5b600060045411610605576040517f08c379a00000000000000000000000000000000000000000000000000000000081526004016105fc90611680565b60405180910390fd5b34600581905550565b600360009054906101000a900473ffffffffffffffffffffffffffffffffffffffff1673ffffffffffffffffffffffffffffffffffffffff163373ffffffffffffffffffffffffffffffffffffffff161461069e576040517f08c379a000000000000000000000000000000000000000000000000000000000815260040161069590611600565b60405180910390fd5b600660009054906101000a900460ff166106ed576040517f08c379a00000000000000000000000000000000000000000000000000000000081526004016106e490611620565b60405180910390fd5b600660019054906101000a900460ff161561073d576040517f08c379a0000000000000000000000000000000000000000000000000000000008152600401610734906116c0565b60405180910390fd5b818314801561074b57508082145b15610b38576040518060800160405280848152602001838152602001828152602001600160028111156107a7577f4e487b7100000000000000000000000000000000000000000000000000000000600052602160045260246000fd5b81525060076000600360009054906101000a900473ffffffffffffffffffffffffffffffffffffffff1673ffffffffffffffffffffffffffffffffffffffff1673ffffffffffffffffffffffffffffffffffffffff16815260200190815260200160002060008201518160000155602082015181600101556040820151816002015560608201518160030160006101000a81548160ff0219169083600281111561087a577f4e487b7100000000000000000000000000000000000000000000000000000000600052602160045260246000fd5b02179055509050507f425780f25bf8b4c1f6d2ab3f003a0c2770f8b20bc2ea0f023fa3de2944bf1ca9600160009054906101000a900473ffffffffffffffffffffffffffffffffffffffff1673ffffffffffffffffffffffffffffffffffffffff16316040516108ea91906116e0565b60405180910390a1600160009054906101000a900473ffffffffffffffffffffffffffffffffffffffff1673ffffffffffffffffffffffffffffffffffffffff166108fc6004549081150290604051600060405180830381858888f1935050505015801561095c573d6000803e3d6000fd5b507f425780f25bf8b4c1f6d2ab3f003a0c2770f8b20bc2ea0f023fa3de2944bf1ca9600160009054906101000a900473ffffffffffffffffffffffffffffffffffffffff1673ffffffffffffffffffffffffffffffffffffffff16316040516109c591906116e0565b60405180910390a17f425780f25bf8b4c1f6d2ab3f003a0c2770f8b20bc2ea0f023fa3de2944bf1ca9600260009054906101000a900473ffffffffffffffffffffffffffffffffffffffff1673ffffffffffffffffffffffffffffffffffffffff1631604051610a3591906116e0565b60405180910390a1600260009054906101000a900473ffffffffffffffffffffffffffffffffffffffff1673ffffffffffffffffffffffffffffffffffffffff166108fc6005549081150290604051600060405180830381858888f19350505050158015610aa7573d6000803e3d6000fd5b507f425780f25bf8b4c1f6d2ab3f003a0c2770f8b20bc2ea0f023fa3de2944bf1ca9600260009054906101000a900473ffffffffffffffffffffffffffffffffffffffff1673ffffffffffffffffffffffffffffffffffffffff1631604051610b1091906116e0565b60405180910390a16000600660006101000a81548160ff02191690831515021790555061118d565b8282148015610b475750818114155b15610f4e576001600660016101000a81548160ff0219169083151502179055506040518060800160405280848152602001838152602001828152602001600280811115610bbd577f4e487b7100000000000000000000000000000000000000000000000000000000600052602160045260246000fd5b81525060076000600360009054906101000a900473ffffffffffffffffffffffffffffffffffffffff1673ffffffffffffffffffffffffffffffffffffffff1673ffffffffffffffffffffffffffffffffffffffff16815260200190815260200160002060008201518160000155602082015181600101556040820151816002015560608201518160030160006101000a81548160ff02191690836002811115610c90577f4e487b7100000000000000000000000000000000000000000000000000000000600052602160045260246000fd5b02179055509050507f425780f25bf8b4c1f6d2ab3f003a0c2770f8b20bc2ea0f023fa3de2944bf1ca9600160009054906101000a900473ffffffffffffffffffffffffffffffffffffffff1673ffffffffffffffffffffffffffffffffffffffff1631604051610d0091906116e0565b60405180910390a1600160009054906101000a900473ffffffffffffffffffffffffffffffffffffffff1673ffffffffffffffffffffffffffffffffffffffff166108fc6005549081150290604051600060405180830381858888f19350505050158015610d72573d6000803e3d6000fd5b507f425780f25bf8b4c1f6d2ab3f003a0c2770f8b20bc2ea0f023fa3de2944bf1ca9600160009054906101000a900473ffffffffffffffffffffffffffffffffffffffff1673ffffffffffffffffffffffffffffffffffffffff1631604051610ddb91906116e0565b60405180910390a17f425780f25bf8b4c1f6d2ab3f003a0c2770f8b20bc2ea0f023fa3de2944bf1ca9600360009054906101000a900473ffffffffffffffffffffffffffffffffffffffff1673ffffffffffffffffffffffffffffffffffffffff1631604051610e4b91906116e0565b60405180910390a1600360009054906101000a900473ffffffffffffffffffffffffffffffffffffffff1673ffffffffffffffffffffffffffffffffffffffff166108fc6004549081150290604051600060405180830381858888f19350505050158015610ebd573d6000803e3d6000fd5b507f425780f25bf8b4c1f6d2ab3f003a0c2770f8b20bc2ea0f023fa3de2944bf1ca9600360009054906101000a900473ffffffffffffffffffffffffffffffffffffffff1673ffffffffffffffffffffffffffffffffffffffff1631604051610f2691906116e0565b60405180910390a16000600660006101000a81548160ff02191690831515021790555061118c565b6001600660016101000a81548160ff0219169083151502179055506040518060800160405280848152602001838152602001828152602001600280811115610fbf577f4e487b7100000000000000000000000000000000000000000000000000000000600052602160045260246000fd5b81525060076000600360009054906101000a900473ffffffffffffffffffffffffffffffffffffffff1673ffffffffffffffffffffffffffffffffffffffff1673ffffffffffffffffffffffffffffffffffffffff16815260200190815260200160002060008201518160000155602082015181600101556040820151816002015560608201518160030160006101000a81548160ff02191690836002811115611092577f4e487b7100000000000000000000000000000000000000000000000000000000600052602160045260246000fd5b0217905550905050600260009054906101000a900473ffffffffffffffffffffffffffffffffffffffff1673ffffffffffffffffffffffffffffffffffffffff166108fc6005549081150290604051600060405180830381858888f19350505050158015611104573d6000803e3d6000fd5b50600360009054906101000a900473ffffffffffffffffffffffffffffffffffffffff1673ffffffffffffffffffffffffffffffffffffffff166108fc6004549081150290604051600060405180830381858888f1935050505015801561116f573d6000803e3d6000fd5b506000600660006101000a81548160ff0219169083151502179055505b5b505050565b60055481565b600660019054906101000a900460ff1681565b600260009054906101000a900473ffffffffffffffffffffffffffffffffffffffff1681565b60076020528060005260406000206000915090508060000154908060010154908060020154908060030160009054906101000a900460ff16905084565b600360009054906101000a900473ffffffffffffffffffffffffffffffffffffffff1681565b60008135905061124381611801565b92915050565b60008135905061125881611818565b92915050565b60006020828403121561127057600080fd5b600061127e84828501611234565b91505092915050565b60008060006060848603121561129c57600080fd5b60006112aa86828701611249565b93505060206112bb86828701611249565b92505060406112cc86828701611249565b9150509250925092565b6112df81611751565b82525050565b6112ee81611763565b82525050565b6112fd816117ac565b82525050565b6000611310602883611740565b91507f4f6e6c79207265636569766572202842292063616e207374617274207468652060008301527f64656c69766572790000000000000000000000000000000000000000000000006020830152604082019050919050565b6000611376602883611740565b91507f4f6e6c79207265636569766572202842292063616e207665726966792074686560008301527f2070726f647563740000000000000000000000000000000000000000000000006020830152604082019050919050565b60006113dc601b83611740565b91507f44656c6976657279206861736e277420726561636865642079657400000000006000830152602082019050919050565b600061141c602983611740565b91507f4f6e6c792064656c697665727920442063616e20696e6974696174652074686560008301527f2064656c697665727900000000000000000000000000000000000000000000006020830152604082019050919050565b6000611482602083611740565b91507f5472616e73616374696f6e20697320616c726561647920636f6d706c657465646000830152602082019050919050565b60006114c2601683611740565b91507f457363726f7720616d6f756e74206e6f742070616964000000000000000000006000830152602082019050919050565b6000611502602d83611740565b91507f4f6e6c792064656c697665727920656e74697479202844292063616e20636f6e60008301527f6669726d2064656c6976657279000000000000000000000000000000000000006020830152604082019050919050565b6000611568601283611740565b91507f44697370757465206973206f6e676f696e6700000000000000000000000000006000830152602082019050919050565b6115a4816117a2565b82525050565b60006020820190506115bf60008301846112d6565b92915050565b60006020820190506115da60008301846112e5565b92915050565b600060208201905081810360008301526115f981611303565b9050919050565b6000602082019050818103600083015261161981611369565b9050919050565b60006020820190508181036000830152611639816113cf565b9050919050565b600060208201905081810360008301526116598161140f565b9050919050565b6000602082019050818103600083015261167981611475565b9050919050565b60006020820190508181036000830152611699816114b5565b9050919050565b600060208201905081810360008301526116b9816114f5565b9050919050565b600060208201905081810360008301526116d98161155b565b9050919050565b60006020820190506116f5600083018461159b565b92915050565b6000608082019050611710600083018761159b565b61171d602083018661159b565b61172a604083018561159b565b61173760608301846112f4565b95945050505050565b600082825260208201905092915050565b600061175c82611782565b9050919050565b60008115159050919050565b600081905061177d826117ed565b919050565b600073ffffffffffffffffffffffffffffffffffffffff82169050919050565b6000819050919050565b60006117b78261176f565b9050919050565b7f4e487b7100000000000000000000000000000000000000000000000000000000600052602160045260246000fd5b600381106117fe576117fd6117be565b5b50565b61180a81611751565b811461181557600080fd5b50565b611821816117a2565b811461182c57600080fd5b5056fea26469706673582212203b09646ebd8f8bcd1bac82239630f78458f9c7e50db798a0b99be3540dc504e564736f6c63430008000033",
					"opcodes": "PUSH1 0x80 PUSH1 0x40 MSTORE CALLVALUE DUP1 ISZERO PUSH3 0x11 JUMPI PUSH1 0x0 DUP1 REVERT JUMPDEST POP PUSH1 0x40 MLOAD PUSH3 0x1B02 CODESIZE SUB DUP1 PUSH3 0x1B02 DUP4 CODECOPY DUP2 DUP2 ADD PUSH1 0x40 MSTORE DUP2 ADD SWAP1 PUSH3 0x37 SWAP2 SWAP1 PUSH3 0x1AF JUMP JUMPDEST DUP4 PUSH1 0x0 DUP1 PUSH2 0x100 EXP DUP2 SLOAD DUP2 PUSH20 0xFFFFFFFFFFFFFFFFFFFFFFFFFFFFFFFFFFFFFFFF MUL NOT AND SWAP1 DUP4 PUSH20 0xFFFFFFFFFFFFFFFFFFFFFFFFFFFFFFFFFFFFFFFF AND MUL OR SWAP1 SSTORE POP CALLER PUSH1 0x1 PUSH1 0x0 PUSH2 0x100 EXP DUP2 SLOAD DUP2 PUSH20 0xFFFFFFFFFFFFFFFFFFFFFFFFFFFFFFFFFFFFFFFF MUL NOT AND SWAP1 DUP4 PUSH20 0xFFFFFFFFFFFFFFFFFFFFFFFFFFFFFFFFFFFFFFFF AND MUL OR SWAP1 SSTORE POP DUP3 PUSH1 0x2 PUSH1 0x0 PUSH2 0x100 EXP DUP2 SLOAD DUP2 PUSH20 0xFFFFFFFFFFFFFFFFFFFFFFFFFFFFFFFFFFFFFFFF MUL NOT AND SWAP1 DUP4 PUSH20 0xFFFFFFFFFFFFFFFFFFFFFFFFFFFFFFFFFFFFFFFF AND MUL OR SWAP1 SSTORE POP DUP1 PUSH1 0x4 DUP2 SWAP1 SSTORE POP DUP2 PUSH1 0x3 PUSH1 0x0 PUSH2 0x100 EXP DUP2 SLOAD DUP2 PUSH20 0xFFFFFFFFFFFFFFFFFFFFFFFFFFFFFFFFFFFFFFFF MUL NOT AND SWAP1 DUP4 PUSH20 0xFFFFFFFFFFFFFFFFFFFFFFFFFFFFFFFFFFFFFFFF AND MUL OR SWAP1 SSTORE POP PUSH1 0x0 PUSH1 0x6 PUSH1 0x0 PUSH2 0x100 EXP DUP2 SLOAD DUP2 PUSH1 0xFF MUL NOT AND SWAP1 DUP4 ISZERO ISZERO MUL OR SWAP1 SSTORE POP PUSH1 0x0 PUSH1 0x6 PUSH1 0x1 PUSH2 0x100 EXP DUP2 SLOAD DUP2 PUSH1 0xFF MUL NOT AND SWAP1 DUP4 ISZERO ISZERO MUL OR SWAP1 SSTORE POP POP POP POP POP PUSH3 0x28D JUMP JUMPDEST PUSH1 0x0 DUP2 MLOAD SWAP1 POP PUSH3 0x192 DUP2 PUSH3 0x259 JUMP JUMPDEST SWAP3 SWAP2 POP POP JUMP JUMPDEST PUSH1 0x0 DUP2 MLOAD SWAP1 POP PUSH3 0x1A9 DUP2 PUSH3 0x273 JUMP JUMPDEST SWAP3 SWAP2 POP POP JUMP JUMPDEST PUSH1 0x0 DUP1 PUSH1 0x0 DUP1 PUSH1 0x80 DUP6 DUP8 SUB SLT ISZERO PUSH3 0x1C6 JUMPI PUSH1 0x0 DUP1 REVERT JUMPDEST PUSH1 0x0 PUSH3 0x1D6 DUP8 DUP3 DUP9 ADD PUSH3 0x181 JUMP JUMPDEST SWAP5 POP POP PUSH1 0x20 PUSH3 0x1E9 DUP8 DUP3 DUP9 ADD PUSH3 0x181 JUMP JUMPDEST SWAP4 POP POP PUSH1 0x40 PUSH3 0x1FC DUP8 DUP3 DUP9 ADD PUSH3 0x181 JUMP JUMPDEST SWAP3 POP POP PUSH1 0x60 PUSH3 0x20F DUP8 DUP3 DUP9 ADD PUSH3 0x198 JUMP JUMPDEST SWAP2 POP POP SWAP3 SWAP6 SWAP2 SWAP5 POP SWAP3 POP JUMP JUMPDEST PUSH1 0x0 PUSH3 0x228 DUP3 PUSH3 0x22F JUMP JUMPDEST SWAP1 POP SWAP2 SWAP1 POP JUMP JUMPDEST PUSH1 0x0 PUSH20 0xFFFFFFFFFFFFFFFFFFFFFFFFFFFFFFFFFFFFFFFF DUP3 AND SWAP1 POP SWAP2 SWAP1 POP JUMP JUMPDEST PUSH1 0x0 DUP2 SWAP1 POP SWAP2 SWAP1 POP JUMP JUMPDEST PUSH3 0x264 DUP2 PUSH3 0x21B JUMP JUMPDEST DUP2 EQ PUSH3 0x270 JUMPI PUSH1 0x0 DUP1 REVERT JUMPDEST POP JUMP JUMPDEST PUSH3 0x27E DUP2 PUSH3 0x24F JUMP JUMPDEST DUP2 EQ PUSH3 0x28A JUMPI PUSH1 0x0 DUP1 REVERT JUMPDEST POP JUMP JUMPDEST PUSH2 0x1865 DUP1 PUSH3 0x29D PUSH1 0x0 CODECOPY PUSH1 0x0 RETURN INVALID PUSH1 0x80 PUSH1 0x40 MSTORE PUSH1 0x4 CALLDATASIZE LT PUSH2 0xDD JUMPI PUSH1 0x0 CALLDATALOAD PUSH1 0xE0 SHR DUP1 PUSH4 0xA1EE4181 GT PUSH2 0x7F JUMPI DUP1 PUSH4 0xE60678C0 GT PUSH2 0x59 JUMPI DUP1 PUSH4 0xE60678C0 EQ PUSH2 0x21E JUMPI DUP1 PUSH4 0xEA5524B8 EQ PUSH2 0x249 JUMPI DUP1 PUSH4 0xF36F4D02 EQ PUSH2 0x274 JUMPI DUP1 PUSH4 0xF7260D3E EQ PUSH2 0x2B4 JUMPI PUSH2 0xDD JUMP JUMPDEST DUP1 PUSH4 0xA1EE4181 EQ PUSH2 0x1CD JUMPI DUP1 PUSH4 0xB67A27AB EQ PUSH2 0x1D7 JUMPI DUP1 PUSH4 0xD3BBF8E5 EQ PUSH2 0x1F3 JUMPI PUSH2 0xDD JUMP JUMPDEST DUP1 PUSH4 0x5E10177B GT PUSH2 0xBB JUMPI DUP1 PUSH4 0x5E10177B EQ PUSH2 0x142 JUMPI DUP1 PUSH4 0x67E404CE EQ PUSH2 0x14C JUMPI DUP1 PUSH4 0x6F9FB98A EQ PUSH2 0x177 JUMPI DUP1 PUSH4 0x74754282 EQ PUSH2 0x1A2 JUMPI PUSH2 0xDD JUMP JUMPDEST DUP1 PUSH4 0x47A7846F EQ PUSH2 0xE2 JUMPI DUP1 PUSH4 0x532EA841 EQ PUSH2 0x10D JUMPI DUP1 PUSH4 0x5B22D520 EQ PUSH2 0x138 JUMPI JUMPDEST PUSH1 0x0 DUP1 REVERT JUMPDEST CALLVALUE DUP1 ISZERO PUSH2 0xEE JUMPI PUSH1 0x0 DUP1 REVERT JUMPDEST POP PUSH2 0xF7 PUSH2 0x2DF JUMP JUMPDEST PUSH1 0x40 MLOAD PUSH2 0x104 SWAP2 SWAP1 PUSH2 0x16E0 JUMP JUMPDEST PUSH1 0x40 MLOAD DUP1 SWAP2 SUB SWAP1 RETURN JUMPDEST CALLVALUE DUP1 ISZERO PUSH2 0x119 JUMPI PUSH1 0x0 DUP1 REVERT JUMPDEST POP PUSH2 0x122 PUSH2 0x2E5 JUMP JUMPDEST PUSH1 0x40 MLOAD PUSH2 0x12F SWAP2 SWAP1 PUSH2 0x15C5 JUMP JUMPDEST PUSH1 0x40 MLOAD DUP1 SWAP2 SUB SWAP1 RETURN JUMPDEST PUSH2 0x140 PUSH2 0x2F8 JUMP JUMPDEST STOP JUMPDEST PUSH2 0x14A PUSH2 0x3E1 JUMP JUMPDEST STOP JUMPDEST CALLVALUE DUP1 ISZERO PUSH2 0x158 JUMPI PUSH1 0x0 DUP1 REVERT JUMPDEST POP PUSH2 0x161 PUSH2 0x4DE JUMP JUMPDEST PUSH1 0x40 MLOAD PUSH2 0x16E SWAP2 SWAP1 PUSH2 0x15AA JUMP JUMPDEST PUSH1 0x40 MLOAD DUP1 SWAP2 SUB SWAP1 RETURN JUMPDEST CALLVALUE DUP1 ISZERO PUSH2 0x183 JUMPI PUSH1 0x0 DUP1 REVERT JUMPDEST POP PUSH2 0x18C PUSH2 0x504 JUMP JUMPDEST PUSH1 0x40 MLOAD PUSH2 0x199 SWAP2 SWAP1 PUSH2 0x16E0 JUMP JUMPDEST PUSH1 0x40 MLOAD DUP1 SWAP2 SUB SWAP1 RETURN JUMPDEST CALLVALUE DUP1 ISZERO PUSH2 0x1AE JUMPI PUSH1 0x0 DUP1 REVERT JUMPDEST POP PUSH2 0x1B7 PUSH2 0x50C JUMP JUMPDEST PUSH1 0x40 MLOAD PUSH2 0x1C4 SWAP2 SWAP1 PUSH2 0x15AA JUMP JUMPDEST PUSH1 0x40 MLOAD DUP1 SWAP2 SUB SWAP1 RETURN JUMPDEST PUSH2 0x1D5 PUSH2 0x530 JUMP JUMPDEST STOP JUMPDEST PUSH2 0x1F1 PUSH1 0x4 DUP1 CALLDATASIZE SUB DUP2 ADD SWAP1 PUSH2 0x1EC SWAP2 SWAP1 PUSH2 0x1287 JUMP JUMPDEST PUSH2 0x60E JUMP JUMPDEST STOP JUMPDEST CALLVALUE DUP1 ISZERO PUSH2 0x1FF JUMPI PUSH1 0x0 DUP1 REVERT JUMPDEST POP PUSH2 0x208 PUSH2 0x1192 JUMP JUMPDEST PUSH1 0x40 MLOAD PUSH2 0x215 SWAP2 SWAP1 PUSH2 0x16E0 JUMP JUMPDEST PUSH1 0x40 MLOAD DUP1 SWAP2 SUB SWAP1 RETURN JUMPDEST CALLVALUE DUP1 ISZERO PUSH2 0x22A JUMPI PUSH1 0x0 DUP1 REVERT JUMPDEST POP PUSH2 0x233 PUSH2 0x1198 JUMP JUMPDEST PUSH1 0x40 MLOAD PUSH2 0x240 SWAP2 SWAP1 PUSH2 0x15C5 JUMP JUMPDEST PUSH1 0x40 MLOAD DUP1 SWAP2 SUB SWAP1 RETURN JUMPDEST CALLVALUE DUP1 ISZERO PUSH2 0x255 JUMPI PUSH1 0x0 DUP1 REVERT JUMPDEST POP PUSH2 0x25E PUSH2 0x11AB JUMP JUMPDEST PUSH1 0x40 MLOAD PUSH2 0x26B SWAP2 SWAP1 PUSH2 0x15AA JUMP JUMPDEST PUSH1 0x40 MLOAD DUP1 SWAP2 SUB SWAP1 RETURN JUMPDEST CALLVALUE DUP1 ISZERO PUSH2 0x280 JUMPI PUSH1 0x0 DUP1 REVERT JUMPDEST POP PUSH2 0x29B PUSH1 0x4 DUP1 CALLDATASIZE SUB DUP2 ADD SWAP1 PUSH2 0x296 SWAP2 SWAP1 PUSH2 0x125E JUMP JUMPDEST PUSH2 0x11D1 JUMP JUMPDEST PUSH1 0x40 MLOAD PUSH2 0x2AB SWAP5 SWAP4 SWAP3 SWAP2 SWAP1 PUSH2 0x16FB JUMP JUMPDEST PUSH1 0x40 MLOAD DUP1 SWAP2 SUB SWAP1 RETURN JUMPDEST CALLVALUE DUP1 ISZERO PUSH2 0x2C0 JUMPI PUSH1 0x0 DUP1 REVERT JUMPDEST POP PUSH2 0x2C9 PUSH2 0x120E JUMP JUMPDEST PUSH1 0x40 MLOAD PUSH2 0x2D6 SWAP2 SWAP1 PUSH2 0x15AA JUMP JUMPDEST PUSH1 0x40 MLOAD DUP1 SWAP2 SUB SWAP1 RETURN JUMPDEST PUSH1 0x4 SLOAD DUP2 JUMP JUMPDEST PUSH1 0x6 PUSH1 0x0 SWAP1 SLOAD SWAP1 PUSH2 0x100 EXP SWAP1 DIV PUSH1 0xFF AND DUP2 JUMP JUMPDEST PUSH1 0x3 PUSH1 0x0 SWAP1 SLOAD SWAP1 PUSH2 0x100 EXP SWAP1 DIV PUSH20 0xFFFFFFFFFFFFFFFFFFFFFFFFFFFFFFFFFFFFFFFF AND PUSH20 0xFFFFFFFFFFFFFFFFFFFFFFFFFFFFFFFFFFFFFFFF AND CALLER PUSH20 0xFFFFFFFFFFFFFFFFFFFFFFFFFFFFFFFFFFFFFFFF AND EQ PUSH2 0x388 JUMPI PUSH1 0x40 MLOAD PUSH32 0x8C379A000000000000000000000000000000000000000000000000000000000 DUP2 MSTORE PUSH1 0x4 ADD PUSH2 0x37F SWAP1 PUSH2 0x15E0 JUMP JUMPDEST PUSH1 0x40 MLOAD DUP1 SWAP2 SUB SWAP1 REVERT JUMPDEST PUSH1 0x6 PUSH1 0x0 SWAP1 SLOAD SWAP1 PUSH2 0x100 EXP SWAP1 DIV PUSH1 0xFF AND ISZERO PUSH2 0x3D8 JUMPI PUSH1 0x40 MLOAD PUSH32 0x8C379A000000000000000000000000000000000000000000000000000000000 DUP2 MSTORE PUSH1 0x4 ADD PUSH2 0x3CF SWAP1 PUSH2 0x1660 JUMP JUMPDEST PUSH1 0x40 MLOAD DUP1 SWAP2 SUB SWAP1 REVERT JUMPDEST CALLVALUE PUSH1 0x4 DUP2 SWAP1 SSTORE POP JUMP JUMPDEST PUSH1 0x2 PUSH1 0x0 SWAP1 SLOAD SWAP1 PUSH2 0x100 EXP SWAP1 DIV PUSH20 0xFFFFFFFFFFFFFFFFFFFFFFFFFFFFFFFFFFFFFFFF AND PUSH20 0xFFFFFFFFFFFFFFFFFFFFFFFFFFFFFFFFFFFFFFFF AND CALLER PUSH20 0xFFFFFFFFFFFFFFFFFFFFFFFFFFFFFFFFFFFFFFFF AND EQ PUSH2 0x471 JUMPI PUSH1 0x40 MLOAD PUSH32 0x8C379A000000000000000000000000000000000000000000000000000000000 DUP2 MSTORE PUSH1 0x4 ADD PUSH2 0x468 SWAP1 PUSH2 0x16A0 JUMP JUMPDEST PUSH1 0x40 MLOAD DUP1 SWAP2 SUB SWAP1 REVERT JUMPDEST PUSH1 0x6 PUSH1 0x0 SWAP1 SLOAD SWAP1 PUSH2 0x100 EXP SWAP1 DIV PUSH1 0xFF AND ISZERO PUSH2 0x4C1 JUMPI PUSH1 0x40 MLOAD PUSH32 0x8C379A000000000000000000000000000000000000000000000000000000000 DUP2 MSTORE PUSH1 0x4 ADD PUSH2 0x4B8 SWAP1 PUSH2 0x1660 JUMP JUMPDEST PUSH1 0x40 MLOAD DUP1 SWAP2 SUB SWAP1 REVERT JUMPDEST PUSH1 0x1 PUSH1 0x6 PUSH1 0x0 PUSH2 0x100 EXP DUP2 SLOAD DUP2 PUSH1 0xFF MUL NOT AND SWAP1 DUP4 ISZERO ISZERO MUL OR SWAP1 SSTORE POP JUMP JUMPDEST PUSH1 0x1 PUSH1 0x0 SWAP1 SLOAD SWAP1 PUSH2 0x100 EXP SWAP1 DIV PUSH20 0xFFFFFFFFFFFFFFFFFFFFFFFFFFFFFFFFFFFFFFFF AND DUP2 JUMP JUMPDEST PUSH1 0x0 SELFBALANCE SWAP1 POP SWAP1 JUMP JUMPDEST PUSH1 0x0 DUP1 SLOAD SWAP1 PUSH2 0x100 EXP SWAP1 DIV PUSH20 0xFFFFFFFFFFFFFFFFFFFFFFFFFFFFFFFFFFFFFFFF AND DUP2 JUMP JUMPDEST PUSH1 0x2 PUSH1 0x0 SWAP1 SLOAD SWAP1 PUSH2 0x100 EXP SWAP1 DIV PUSH20 0xFFFFFFFFFFFFFFFFFFFFFFFFFFFFFFFFFFFFFFFF AND PUSH20 0xFFFFFFFFFFFFFFFFFFFFFFFFFFFFFFFFFFFFFFFF AND CALLER PUSH20 0xFFFFFFFFFFFFFFFFFFFFFFFFFFFFFFFFFFFFFFFF AND EQ PUSH2 0x5C0 JUMPI PUSH1 0x40 MLOAD PUSH32 0x8C379A000000000000000000000000000000000000000000000000000000000 DUP2 MSTORE PUSH1 0x4 ADD PUSH2 0x5B7 SWAP1 PUSH2 0x1640 JUMP JUMPDEST PUSH1 0x40 MLOAD DUP1 SWAP2 SUB SWAP1 REVERT JUMPDEST PUSH1 0x0 PUSH1 0x4 SLOAD GT PUSH2 0x605 JUMPI PUSH1 0x40 MLOAD PUSH32 0x8C379A000000000000000000000000000000000000000000000000000000000 DUP2 MSTORE PUSH1 0x4 ADD PUSH2 0x5FC SWAP1 PUSH2 0x1680 JUMP JUMPDEST PUSH1 0x40 MLOAD DUP1 SWAP2 SUB SWAP1 REVERT JUMPDEST CALLVALUE PUSH1 0x5 DUP2 SWAP1 SSTORE POP JUMP JUMPDEST PUSH1 0x3 PUSH1 0x0 SWAP1 SLOAD SWAP1 PUSH2 0x100 EXP SWAP1 DIV PUSH20 0xFFFFFFFFFFFFFFFFFFFFFFFFFFFFFFFFFFFFFFFF AND PUSH20 0xFFFFFFFFFFFFFFFFFFFFFFFFFFFFFFFFFFFFFFFF AND CALLER PUSH20 0xFFFFFFFFFFFFFFFFFFFFFFFFFFFFFFFFFFFFFFFF AND EQ PUSH2 0x69E JUMPI PUSH1 0x40 MLOAD PUSH32 0x8C379A000000000000000000000000000000000000000000000000000000000 DUP2 MSTORE PUSH1 0x4 ADD PUSH2 0x695 SWAP1 PUSH2 0x1600 JUMP JUMPDEST PUSH1 0x40 MLOAD DUP1 SWAP2 SUB SWAP1 REVERT JUMPDEST PUSH1 0x6 PUSH1 0x0 SWAP1 SLOAD SWAP1 PUSH2 0x100 EXP SWAP1 DIV PUSH1 0xFF AND PUSH2 0x6ED JUMPI PUSH1 0x40 MLOAD PUSH32 0x8C379A000000000000000000000000000000000000000000000000000000000 DUP2 MSTORE PUSH1 0x4 ADD PUSH2 0x6E4 SWAP1 PUSH2 0x1620 JUMP JUMPDEST PUSH1 0x40 MLOAD DUP1 SWAP2 SUB SWAP1 REVERT JUMPDEST PUSH1 0x6 PUSH1 0x1 SWAP1 SLOAD SWAP1 PUSH2 0x100 EXP SWAP1 DIV PUSH1 0xFF AND ISZERO PUSH2 0x73D JUMPI PUSH1 0x40 MLOAD PUSH32 0x8C379A000000000000000000000000000000000000000000000000000000000 DUP2 MSTORE PUSH1 0x4 ADD PUSH2 0x734 SWAP1 PUSH2 0x16C0 JUMP JUMPDEST PUSH1 0x40 MLOAD DUP1 SWAP2 SUB SWAP1 REVERT JUMPDEST DUP2 DUP4 EQ DUP1 ISZERO PUSH2 0x74B JUMPI POP DUP1 DUP3 EQ JUMPDEST ISZERO PUSH2 0xB38 JUMPI PUSH1 0x40 MLOAD DUP1 PUSH1 0x80 ADD PUSH1 0x40 MSTORE DUP1 DUP5 DUP2 MSTORE PUSH1 0x20 ADD DUP4 DUP2 MSTORE PUSH1 0x20 ADD DUP3 DUP2 MSTORE PUSH1 0x20 ADD PUSH1 0x1 PUSH1 0x2 DUP2 GT ISZERO PUSH2 0x7A7 JUMPI PUSH32 0x4E487B7100000000000000000000000000000000000000000000000000000000 PUSH1 0x0 MSTORE PUSH1 0x21 PUSH1 0x4 MSTORE PUSH1 0x24 PUSH1 0x0 REVERT JUMPDEST DUP2 MSTORE POP PUSH1 0x7 PUSH1 0x0 PUSH1 0x3 PUSH1 0x0 SWAP1 SLOAD SWAP1 PUSH2 0x100 EXP SWAP1 DIV PUSH20 0xFFFFFFFFFFFFFFFFFFFFFFFFFFFFFFFFFFFFFFFF AND PUSH20 0xFFFFFFFFFFFFFFFFFFFFFFFFFFFFFFFFFFFFFFFF AND PUSH20 0xFFFFFFFFFFFFFFFFFFFFFFFFFFFFFFFFFFFFFFFF AND DUP2 MSTORE PUSH1 0x20 ADD SWAP1 DUP2 MSTORE PUSH1 0x20 ADD PUSH1 0x0 KECCAK256 PUSH1 0x0 DUP3 ADD MLOAD DUP2 PUSH1 0x0 ADD SSTORE PUSH1 0x20 DUP3 ADD MLOAD DUP2 PUSH1 0x1 ADD SSTORE PUSH1 0x40 DUP3 ADD MLOAD DUP2 PUSH1 0x2 ADD SSTORE PUSH1 0x60 DUP3 ADD MLOAD DUP2 PUSH1 0x3 ADD PUSH1 0x0 PUSH2 0x100 EXP DUP2 SLOAD DUP2 PUSH1 0xFF MUL NOT AND SWAP1 DUP4 PUSH1 0x2 DUP2 GT ISZERO PUSH2 0x87A JUMPI PUSH32 0x4E487B7100000000000000000000000000000000000000000000000000000000 PUSH1 0x0 MSTORE PUSH1 0x21 PUSH1 0x4 MSTORE PUSH1 0x24 PUSH1 0x0 REVERT JUMPDEST MUL OR SWAP1 SSTORE POP SWAP1 POP POP PUSH32 0x425780F25BF8B4C1F6D2AB3F003A0C2770F8B20BC2EA0F023FA3DE2944BF1CA9 PUSH1 0x1 PUSH1 0x0 SWAP1 SLOAD SWAP1 PUSH2 0x100 EXP SWAP1 DIV PUSH20 0xFFFFFFFFFFFFFFFFFFFFFFFFFFFFFFFFFFFFFFFF AND PUSH20 0xFFFFFFFFFFFFFFFFFFFFFFFFFFFFFFFFFFFFFFFF AND BALANCE PUSH1 0x40 MLOAD PUSH2 0x8EA SWAP2 SWAP1 PUSH2 0x16E0 JUMP JUMPDEST PUSH1 0x40 MLOAD DUP1 SWAP2 SUB SWAP1 LOG1 PUSH1 0x1 PUSH1 0x0 SWAP1 SLOAD SWAP1 PUSH2 0x100 EXP SWAP1 DIV PUSH20 0xFFFFFFFFFFFFFFFFFFFFFFFFFFFFFFFFFFFFFFFF AND PUSH20 0xFFFFFFFFFFFFFFFFFFFFFFFFFFFFFFFFFFFFFFFF AND PUSH2 0x8FC PUSH1 0x4 SLOAD SWAP1 DUP2 ISZERO MUL SWAP1 PUSH1 0x40 MLOAD PUSH1 0x0 PUSH1 0x40 MLOAD DUP1 DUP4 SUB DUP2 DUP6 DUP9 DUP9 CALL SWAP4 POP POP POP POP ISZERO DUP1 ISZERO PUSH2 0x95C JUMPI RETURNDATASIZE PUSH1 0x0 DUP1 RETURNDATACOPY RETURNDATASIZE PUSH1 0x0 REVERT JUMPDEST POP PUSH32 0x425780F25BF8B4C1F6D2AB3F003A0C2770F8B20BC2EA0F023FA3DE2944BF1CA9 PUSH1 0x1 PUSH1 0x0 SWAP1 SLOAD SWAP1 PUSH2 0x100 EXP SWAP1 DIV PUSH20 0xFFFFFFFFFFFFFFFFFFFFFFFFFFFFFFFFFFFFFFFF AND PUSH20 0xFFFFFFFFFFFFFFFFFFFFFFFFFFFFFFFFFFFFFFFF AND BALANCE PUSH1 0x40 MLOAD PUSH2 0x9C5 SWAP2 SWAP1 PUSH2 0x16E0 JUMP JUMPDEST PUSH1 0x40 MLOAD DUP1 SWAP2 SUB SWAP1 LOG1 PUSH32 0x425780F25BF8B4C1F6D2AB3F003A0C2770F8B20BC2EA0F023FA3DE2944BF1CA9 PUSH1 0x2 PUSH1 0x0 SWAP1 SLOAD SWAP1 PUSH2 0x100 EXP SWAP1 DIV PUSH20 0xFFFFFFFFFFFFFFFFFFFFFFFFFFFFFFFFFFFFFFFF AND PUSH20 0xFFFFFFFFFFFFFFFFFFFFFFFFFFFFFFFFFFFFFFFF AND BALANCE PUSH1 0x40 MLOAD PUSH2 0xA35 SWAP2 SWAP1 PUSH2 0x16E0 JUMP JUMPDEST PUSH1 0x40 MLOAD DUP1 SWAP2 SUB SWAP1 LOG1 PUSH1 0x2 PUSH1 0x0 SWAP1 SLOAD SWAP1 PUSH2 0x100 EXP SWAP1 DIV PUSH20 0xFFFFFFFFFFFFFFFFFFFFFFFFFFFFFFFFFFFFFFFF AND PUSH20 0xFFFFFFFFFFFFFFFFFFFFFFFFFFFFFFFFFFFFFFFF AND PUSH2 0x8FC PUSH1 0x5 SLOAD SWAP1 DUP2 ISZERO MUL SWAP1 PUSH1 0x40 MLOAD PUSH1 0x0 PUSH1 0x40 MLOAD DUP1 DUP4 SUB DUP2 DUP6 DUP9 DUP9 CALL SWAP4 POP POP POP POP ISZERO DUP1 ISZERO PUSH2 0xAA7 JUMPI RETURNDATASIZE PUSH1 0x0 DUP1 RETURNDATACOPY RETURNDATASIZE PUSH1 0x0 REVERT JUMPDEST POP PUSH32 0x425780F25BF8B4C1F6D2AB3F003A0C2770F8B20BC2EA0F023FA3DE2944BF1CA9 PUSH1 0x2 PUSH1 0x0 SWAP1 SLOAD SWAP1 PUSH2 0x100 EXP SWAP1 DIV PUSH20 0xFFFFFFFFFFFFFFFFFFFFFFFFFFFFFFFFFFFFFFFF AND PUSH20 0xFFFFFFFFFFFFFFFFFFFFFFFFFFFFFFFFFFFFFFFF AND BALANCE PUSH1 0x40 MLOAD PUSH2 0xB10 SWAP2 SWAP1 PUSH2 0x16E0 JUMP JUMPDEST PUSH1 0x40 MLOAD DUP1 SWAP2 SUB SWAP1 LOG1 PUSH1 0x0 PUSH1 0x6 PUSH1 0x0 PUSH2 0x100 EXP DUP2 SLOAD DUP2 PUSH1 0xFF MUL NOT AND SWAP1 DUP4 ISZERO ISZERO MUL OR SWAP1 SSTORE POP PUSH2 0x118D JUMP JUMPDEST DUP3 DUP3 EQ DUP1 ISZERO PUSH2 0xB47 JUMPI POP DUP2 DUP2 EQ ISZERO JUMPDEST ISZERO PUSH2 0xF4E JUMPI PUSH1 0x1 PUSH1 0x6 PUSH1 0x1 PUSH2 0x100 EXP DUP2 SLOAD DUP2 PUSH1 0xFF MUL NOT AND SWAP1 DUP4 ISZERO ISZERO MUL OR SWAP1 SSTORE POP PUSH1 0x40 MLOAD DUP1 PUSH1 0x80 ADD PUSH1 0x40 MSTORE DUP1 DUP5 DUP2 MSTORE PUSH1 0x20 ADD DUP4 DUP2 MSTORE PUSH1 0x20 ADD DUP3 DUP2 MSTORE PUSH1 0x20 ADD PUSH1 0x2 DUP1 DUP2 GT ISZERO PUSH2 0xBBD JUMPI PUSH32 0x4E487B7100000000000000000000000000000000000000000000000000000000 PUSH1 0x0 MSTORE PUSH1 0x21 PUSH1 0x4 MSTORE PUSH1 0x24 PUSH1 0x0 REVERT JUMPDEST DUP2 MSTORE POP PUSH1 0x7 PUSH1 0x0 PUSH1 0x3 PUSH1 0x0 SWAP1 SLOAD SWAP1 PUSH2 0x100 EXP SWAP1 DIV PUSH20 0xFFFFFFFFFFFFFFFFFFFFFFFFFFFFFFFFFFFFFFFF AND PUSH20 0xFFFFFFFFFFFFFFFFFFFFFFFFFFFFFFFFFFFFFFFF AND PUSH20 0xFFFFFFFFFFFFFFFFFFFFFFFFFFFFFFFFFFFFFFFF AND DUP2 MSTORE PUSH1 0x20 ADD SWAP1 DUP2 MSTORE PUSH1 0x20 ADD PUSH1 0x0 KECCAK256 PUSH1 0x0 DUP3 ADD MLOAD DUP2 PUSH1 0x0 ADD SSTORE PUSH1 0x20 DUP3 ADD MLOAD DUP2 PUSH1 0x1 ADD SSTORE PUSH1 0x40 DUP3 ADD MLOAD DUP2 PUSH1 0x2 ADD SSTORE PUSH1 0x60 DUP3 ADD MLOAD DUP2 PUSH1 0x3 ADD PUSH1 0x0 PUSH2 0x100 EXP DUP2 SLOAD DUP2 PUSH1 0xFF MUL NOT AND SWAP1 DUP4 PUSH1 0x2 DUP2 GT ISZERO PUSH2 0xC90 JUMPI PUSH32 0x4E487B7100000000000000000000000000000000000000000000000000000000 PUSH1 0x0 MSTORE PUSH1 0x21 PUSH1 0x4 MSTORE PUSH1 0x24 PUSH1 0x0 REVERT JUMPDEST MUL OR SWAP1 SSTORE POP SWAP1 POP POP PUSH32 0x425780F25BF8B4C1F6D2AB3F003A0C2770F8B20BC2EA0F023FA3DE2944BF1CA9 PUSH1 0x1 PUSH1 0x0 SWAP1 SLOAD SWAP1 PUSH2 0x100 EXP SWAP1 DIV PUSH20 0xFFFFFFFFFFFFFFFFFFFFFFFFFFFFFFFFFFFFFFFF AND PUSH20 0xFFFFFFFFFFFFFFFFFFFFFFFFFFFFFFFFFFFFFFFF AND BALANCE PUSH1 0x40 MLOAD PUSH2 0xD00 SWAP2 SWAP1 PUSH2 0x16E0 JUMP JUMPDEST PUSH1 0x40 MLOAD DUP1 SWAP2 SUB SWAP1 LOG1 PUSH1 0x1 PUSH1 0x0 SWAP1 SLOAD SWAP1 PUSH2 0x100 EXP SWAP1 DIV PUSH20 0xFFFFFFFFFFFFFFFFFFFFFFFFFFFFFFFFFFFFFFFF AND PUSH20 0xFFFFFFFFFFFFFFFFFFFFFFFFFFFFFFFFFFFFFFFF AND PUSH2 0x8FC PUSH1 0x5 SLOAD SWAP1 DUP2 ISZERO MUL SWAP1 PUSH1 0x40 MLOAD PUSH1 0x0 PUSH1 0x40 MLOAD DUP1 DUP4 SUB DUP2 DUP6 DUP9 DUP9 CALL SWAP4 POP POP POP POP ISZERO DUP1 ISZERO PUSH2 0xD72 JUMPI RETURNDATASIZE PUSH1 0x0 DUP1 RETURNDATACOPY RETURNDATASIZE PUSH1 0x0 REVERT JUMPDEST POP PUSH32 0x425780F25BF8B4C1F6D2AB3F003A0C2770F8B20BC2EA0F023FA3DE2944BF1CA9 PUSH1 0x1 PUSH1 0x0 SWAP1 SLOAD SWAP1 PUSH2 0x100 EXP SWAP1 DIV PUSH20 0xFFFFFFFFFFFFFFFFFFFFFFFFFFFFFFFFFFFFFFFF AND PUSH20 0xFFFFFFFFFFFFFFFFFFFFFFFFFFFFFFFFFFFFFFFF AND BALANCE PUSH1 0x40 MLOAD PUSH2 0xDDB SWAP2 SWAP1 PUSH2 0x16E0 JUMP JUMPDEST PUSH1 0x40 MLOAD DUP1 SWAP2 SUB SWAP1 LOG1 PUSH32 0x425780F25BF8B4C1F6D2AB3F003A0C2770F8B20BC2EA0F023FA3DE2944BF1CA9 PUSH1 0x3 PUSH1 0x0 SWAP1 SLOAD SWAP1 PUSH2 0x100 EXP SWAP1 DIV PUSH20 0xFFFFFFFFFFFFFFFFFFFFFFFFFFFFFFFFFFFFFFFF AND PUSH20 0xFFFFFFFFFFFFFFFFFFFFFFFFFFFFFFFFFFFFFFFF AND BALANCE PUSH1 0x40 MLOAD PUSH2 0xE4B SWAP2 SWAP1 PUSH2 0x16E0 JUMP JUMPDEST PUSH1 0x40 MLOAD DUP1 SWAP2 SUB SWAP1 LOG1 PUSH1 0x3 PUSH1 0x0 SWAP1 SLOAD SWAP1 PUSH2 0x100 EXP SWAP1 DIV PUSH20 0xFFFFFFFFFFFFFFFFFFFFFFFFFFFFFFFFFFFFFFFF AND PUSH20 0xFFFFFFFFFFFFFFFFFFFFFFFFFFFFFFFFFFFFFFFF AND PUSH2 0x8FC PUSH1 0x4 SLOAD SWAP1 DUP2 ISZERO MUL SWAP1 PUSH1 0x40 MLOAD PUSH1 0x0 PUSH1 0x40 MLOAD DUP1 DUP4 SUB DUP2 DUP6 DUP9 DUP9 CALL SWAP4 POP POP POP POP ISZERO DUP1 ISZERO PUSH2 0xEBD JUMPI RETURNDATASIZE PUSH1 0x0 DUP1 RETURNDATACOPY RETURNDATASIZE PUSH1 0x0 REVERT JUMPDEST POP PUSH32 0x425780F25BF8B4C1F6D2AB3F003A0C2770F8B20BC2EA0F023FA3DE2944BF1CA9 PUSH1 0x3 PUSH1 0x0 SWAP1 SLOAD SWAP1 PUSH2 0x100 EXP SWAP1 DIV PUSH20 0xFFFFFFFFFFFFFFFFFFFFFFFFFFFFFFFFFFFFFFFF AND PUSH20 0xFFFFFFFFFFFFFFFFFFFFFFFFFFFFFFFFFFFFFFFF AND BALANCE PUSH1 0x40 MLOAD PUSH2 0xF26 SWAP2 SWAP1 PUSH2 0x16E0 JUMP JUMPDEST PUSH1 0x40 MLOAD DUP1 SWAP2 SUB SWAP1 LOG1 PUSH1 0x0 PUSH1 0x6 PUSH1 0x0 PUSH2 0x100 EXP DUP2 SLOAD DUP2 PUSH1 0xFF MUL NOT AND SWAP1 DUP4 ISZERO ISZERO MUL OR SWAP1 SSTORE POP PUSH2 0x118C JUMP JUMPDEST PUSH1 0x1 PUSH1 0x6 PUSH1 0x1 PUSH2 0x100 EXP DUP2 SLOAD DUP2 PUSH1 0xFF MUL NOT AND SWAP1 DUP4 ISZERO ISZERO MUL OR SWAP1 SSTORE POP PUSH1 0x40 MLOAD DUP1 PUSH1 0x80 ADD PUSH1 0x40 MSTORE DUP1 DUP5 DUP2 MSTORE PUSH1 0x20 ADD DUP4 DUP2 MSTORE PUSH1 0x20 ADD DUP3 DUP2 MSTORE PUSH1 0x20 ADD PUSH1 0x2 DUP1 DUP2 GT ISZERO PUSH2 0xFBF JUMPI PUSH32 0x4E487B7100000000000000000000000000000000000000000000000000000000 PUSH1 0x0 MSTORE PUSH1 0x21 PUSH1 0x4 MSTORE PUSH1 0x24 PUSH1 0x0 REVERT JUMPDEST DUP2 MSTORE POP PUSH1 0x7 PUSH1 0x0 PUSH1 0x3 PUSH1 0x0 SWAP1 SLOAD SWAP1 PUSH2 0x100 EXP SWAP1 DIV PUSH20 0xFFFFFFFFFFFFFFFFFFFFFFFFFFFFFFFFFFFFFFFF AND PUSH20 0xFFFFFFFFFFFFFFFFFFFFFFFFFFFFFFFFFFFFFFFF AND PUSH20 0xFFFFFFFFFFFFFFFFFFFFFFFFFFFFFFFFFFFFFFFF AND DUP2 MSTORE PUSH1 0x20 ADD SWAP1 DUP2 MSTORE PUSH1 0x20 ADD PUSH1 0x0 KECCAK256 PUSH1 0x0 DUP3 ADD MLOAD DUP2 PUSH1 0x0 ADD SSTORE PUSH1 0x20 DUP3 ADD MLOAD DUP2 PUSH1 0x1 ADD SSTORE PUSH1 0x40 DUP3 ADD MLOAD DUP2 PUSH1 0x2 ADD SSTORE PUSH1 0x60 DUP3 ADD MLOAD DUP2 PUSH1 0x3 ADD PUSH1 0x0 PUSH2 0x100 EXP DUP2 SLOAD DUP2 PUSH1 0xFF MUL NOT AND SWAP1 DUP4 PUSH1 0x2 DUP2 GT ISZERO PUSH2 0x1092 JUMPI PUSH32 0x4E487B7100000000000000000000000000000000000000000000000000000000 PUSH1 0x0 MSTORE PUSH1 0x21 PUSH1 0x4 MSTORE PUSH1 0x24 PUSH1 0x0 REVERT JUMPDEST MUL OR SWAP1 SSTORE POP SWAP1 POP POP PUSH1 0x2 PUSH1 0x0 SWAP1 SLOAD SWAP1 PUSH2 0x100 EXP SWAP1 DIV PUSH20 0xFFFFFFFFFFFFFFFFFFFFFFFFFFFFFFFFFFFFFFFF AND PUSH20 0xFFFFFFFFFFFFFFFFFFFFFFFFFFFFFFFFFFFFFFFF AND PUSH2 0x8FC PUSH1 0x5 SLOAD SWAP1 DUP2 ISZERO MUL SWAP1 PUSH1 0x40 MLOAD PUSH1 0x0 PUSH1 0x40 MLOAD DUP1 DUP4 SUB DUP2 DUP6 DUP9 DUP9 CALL SWAP4 POP POP POP POP ISZERO DUP1 ISZERO PUSH2 0x1104 JUMPI RETURNDATASIZE PUSH1 0x0 DUP1 RETURNDATACOPY RETURNDATASIZE PUSH1 0x0 REVERT JUMPDEST POP PUSH1 0x3 PUSH1 0x0 SWAP1 SLOAD SWAP1 PUSH2 0x100 EXP SWAP1 DIV PUSH20 0xFFFFFFFFFFFFFFFFFFFFFFFFFFFFFFFFFFFFFFFF AND PUSH20 0xFFFFFFFFFFFFFFFFFFFFFFFFFFFFFFFFFFFFFFFF AND PUSH2 0x8FC PUSH1 0x4 SLOAD SWAP1 DUP2 ISZERO MUL SWAP1 PUSH1 0x40 MLOAD PUSH1 0x0 PUSH1 0x40 MLOAD DUP1 DUP4 SUB DUP2 DUP6 DUP9 DUP9 CALL SWAP4 POP POP POP POP ISZERO DUP1 ISZERO PUSH2 0x116F JUMPI RETURNDATASIZE PUSH1 0x0 DUP1 RETURNDATACOPY RETURNDATASIZE PUSH1 0x0 REVERT JUMPDEST POP PUSH1 0x0 PUSH1 0x6 PUSH1 0x0 PUSH2 0x100 EXP DUP2 SLOAD DUP2 PUSH1 0xFF MUL NOT AND SWAP1 DUP4 ISZERO ISZERO MUL OR SWAP1 SSTORE POP JUMPDEST JUMPDEST POP POP POP JUMP JUMPDEST PUSH1 0x5 SLOAD DUP2 JUMP JUMPDEST PUSH1 0x6 PUSH1 0x1 SWAP1 SLOAD SWAP1 PUSH2 0x100 EXP SWAP1 DIV PUSH1 0xFF AND DUP2 JUMP JUMPDEST PUSH1 0x2 PUSH1 0x0 SWAP1 SLOAD SWAP1 PUSH2 0x100 EXP SWAP1 DIV PUSH20 0xFFFFFFFFFFFFFFFFFFFFFFFFFFFFFFFFFFFFFFFF AND DUP2 JUMP JUMPDEST PUSH1 0x7 PUSH1 0x20 MSTORE DUP1 PUSH1 0x0 MSTORE PUSH1 0x40 PUSH1 0x0 KECCAK256 PUSH1 0x0 SWAP2 POP SWAP1 POP DUP1 PUSH1 0x0 ADD SLOAD SWAP1 DUP1 PUSH1 0x1 ADD SLOAD SWAP1 DUP1 PUSH1 0x2 ADD SLOAD SWAP1 DUP1 PUSH1 0x3 ADD PUSH1 0x0 SWAP1 SLOAD SWAP1 PUSH2 0x100 EXP SWAP1 DIV PUSH1 0xFF AND SWAP1 POP DUP5 JUMP JUMPDEST PUSH1 0x3 PUSH1 0x0 SWAP1 SLOAD SWAP1 PUSH2 0x100 EXP SWAP1 DIV PUSH20 0xFFFFFFFFFFFFFFFFFFFFFFFFFFFFFFFFFFFFFFFF AND DUP2 JUMP JUMPDEST PUSH1 0x0 DUP2 CALLDATALOAD SWAP1 POP PUSH2 0x1243 DUP2 PUSH2 0x1801 JUMP JUMPDEST SWAP3 SWAP2 POP POP JUMP JUMPDEST PUSH1 0x0 DUP2 CALLDATALOAD SWAP1 POP PUSH2 0x1258 DUP2 PUSH2 0x1818 JUMP JUMPDEST SWAP3 SWAP2 POP POP JUMP JUMPDEST PUSH1 0x0 PUSH1 0x20 DUP3 DUP5 SUB SLT ISZERO PUSH2 0x1270 JUMPI PUSH1 0x0 DUP1 REVERT JUMPDEST PUSH1 0x0 PUSH2 0x127E DUP5 DUP3 DUP6 ADD PUSH2 0x1234 JUMP JUMPDEST SWAP2 POP POP SWAP3 SWAP2 POP POP JUMP JUMPDEST PUSH1 0x0 DUP1 PUSH1 0x0 PUSH1 0x60 DUP5 DUP7 SUB SLT ISZERO PUSH2 0x129C JUMPI PUSH1 0x0 DUP1 REVERT JUMPDEST PUSH1 0x0 PUSH2 0x12AA DUP7 DUP3 DUP8 ADD PUSH2 0x1249 JUMP JUMPDEST SWAP4 POP POP PUSH1 0x20 PUSH2 0x12BB DUP7 DUP3 DUP8 ADD PUSH2 0x1249 JUMP JUMPDEST SWAP3 POP POP PUSH1 0x40 PUSH2 0x12CC DUP7 DUP3 DUP8 ADD PUSH2 0x1249 JUMP JUMPDEST SWAP2 POP POP SWAP3 POP SWAP3 POP SWAP3 JUMP JUMPDEST PUSH2 0x12DF DUP2 PUSH2 0x1751 JUMP JUMPDEST DUP3 MSTORE POP POP JUMP JUMPDEST PUSH2 0x12EE DUP2 PUSH2 0x1763 JUMP JUMPDEST DUP3 MSTORE POP POP JUMP JUMPDEST PUSH2 0x12FD DUP2 PUSH2 0x17AC JUMP JUMPDEST DUP3 MSTORE POP POP JUMP JUMPDEST PUSH1 0x0 PUSH2 0x1310 PUSH1 0x28 DUP4 PUSH2 0x1740 JUMP JUMPDEST SWAP2 POP PUSH32 0x4F6E6C79207265636569766572202842292063616E2073746172742074686520 PUSH1 0x0 DUP4 ADD MSTORE PUSH32 0x64656C6976657279000000000000000000000000000000000000000000000000 PUSH1 0x20 DUP4 ADD MSTORE PUSH1 0x40 DUP3 ADD SWAP1 POP SWAP2 SWAP1 POP JUMP JUMPDEST PUSH1 0x0 PUSH2 0x1376 PUSH1 0x28 DUP4 PUSH2 0x1740 JUMP JUMPDEST SWAP2 POP PUSH32 0x4F6E6C79207265636569766572202842292063616E2076657269667920746865 PUSH1 0x0 DUP4 ADD MSTORE PUSH32 0x2070726F64756374000000000000000000000000000000000000000000000000 PUSH1 0x20 DUP4 ADD MSTORE PUSH1 0x40 DUP3 ADD SWAP1 POP SWAP2 SWAP1 POP JUMP JUMPDEST PUSH1 0x0 PUSH2 0x13DC PUSH1 0x1B DUP4 PUSH2 0x1740 JUMP JUMPDEST SWAP2 POP PUSH32 0x44656C6976657279206861736E27742072656163686564207965740000000000 PUSH1 0x0 DUP4 ADD MSTORE PUSH1 0x20 DUP3 ADD SWAP1 POP SWAP2 SWAP1 POP JUMP JUMPDEST PUSH1 0x0 PUSH2 0x141C PUSH1 0x29 DUP4 PUSH2 0x1740 JUMP JUMPDEST SWAP2 POP PUSH32 0x4F6E6C792064656C697665727920442063616E20696E69746961746520746865 PUSH1 0x0 DUP4 ADD MSTORE PUSH32 0x2064656C69766572790000000000000000000000000000000000000000000000 PUSH1 0x20 DUP4 ADD MSTORE PUSH1 0x40 DUP3 ADD SWAP1 POP SWAP2 SWAP1 POP JUMP JUMPDEST PUSH1 0x0 PUSH2 0x1482 PUSH1 0x20 DUP4 PUSH2 0x1740 JUMP JUMPDEST SWAP2 POP PUSH32 0x5472616E73616374696F6E20697320616C726561647920636F6D706C65746564 PUSH1 0x0 DUP4 ADD MSTORE PUSH1 0x20 DUP3 ADD SWAP1 POP SWAP2 SWAP1 POP JUMP JUMPDEST PUSH1 0x0 PUSH2 0x14C2 PUSH1 0x16 DUP4 PUSH2 0x1740 JUMP JUMPDEST SWAP2 POP PUSH32 0x457363726F7720616D6F756E74206E6F74207061696400000000000000000000 PUSH1 0x0 DUP4 ADD MSTORE PUSH1 0x20 DUP3 ADD SWAP1 POP SWAP2 SWAP1 POP JUMP JUMPDEST PUSH1 0x0 PUSH2 0x1502 PUSH1 0x2D DUP4 PUSH2 0x1740 JUMP JUMPDEST SWAP2 POP PUSH32 0x4F6E6C792064656C697665727920656E74697479202844292063616E20636F6E PUSH1 0x0 DUP4 ADD MSTORE PUSH32 0x6669726D2064656C697665727900000000000000000000000000000000000000 PUSH1 0x20 DUP4 ADD MSTORE PUSH1 0x40 DUP3 ADD SWAP1 POP SWAP2 SWAP1 POP JUMP JUMPDEST PUSH1 0x0 PUSH2 0x1568 PUSH1 0x12 DUP4 PUSH2 0x1740 JUMP JUMPDEST SWAP2 POP PUSH32 0x44697370757465206973206F6E676F696E670000000000000000000000000000 PUSH1 0x0 DUP4 ADD MSTORE PUSH1 0x20 DUP3 ADD SWAP1 POP SWAP2 SWAP1 POP JUMP JUMPDEST PUSH2 0x15A4 DUP2 PUSH2 0x17A2 JUMP JUMPDEST DUP3 MSTORE POP POP JUMP JUMPDEST PUSH1 0x0 PUSH1 0x20 DUP3 ADD SWAP1 POP PUSH2 0x15BF PUSH1 0x0 DUP4 ADD DUP5 PUSH2 0x12D6 JUMP JUMPDEST SWAP3 SWAP2 POP POP JUMP JUMPDEST PUSH1 0x0 PUSH1 0x20 DUP3 ADD SWAP1 POP PUSH2 0x15DA PUSH1 0x0 DUP4 ADD DUP5 PUSH2 0x12E5 JUMP JUMPDEST SWAP3 SWAP2 POP POP JUMP JUMPDEST PUSH1 0x0 PUSH1 0x20 DUP3 ADD SWAP1 POP DUP2 DUP2 SUB PUSH1 0x0 DUP4 ADD MSTORE PUSH2 0x15F9 DUP2 PUSH2 0x1303 JUMP JUMPDEST SWAP1 POP SWAP2 SWAP1 POP JUMP JUMPDEST PUSH1 0x0 PUSH1 0x20 DUP3 ADD SWAP1 POP DUP2 DUP2 SUB PUSH1 0x0 DUP4 ADD MSTORE PUSH2 0x1619 DUP2 PUSH2 0x1369 JUMP JUMPDEST SWAP1 POP SWAP2 SWAP1 POP JUMP JUMPDEST PUSH1 0x0 PUSH1 0x20 DUP3 ADD SWAP1 POP DUP2 DUP2 SUB PUSH1 0x0 DUP4 ADD MSTORE PUSH2 0x1639 DUP2 PUSH2 0x13CF JUMP JUMPDEST SWAP1 POP SWAP2 SWAP1 POP JUMP JUMPDEST PUSH1 0x0 PUSH1 0x20 DUP3 ADD SWAP1 POP DUP2 DUP2 SUB PUSH1 0x0 DUP4 ADD MSTORE PUSH2 0x1659 DUP2 PUSH2 0x140F JUMP JUMPDEST SWAP1 POP SWAP2 SWAP1 POP JUMP JUMPDEST PUSH1 0x0 PUSH1 0x20 DUP3 ADD SWAP1 POP DUP2 DUP2 SUB PUSH1 0x0 DUP4 ADD MSTORE PUSH2 0x1679 DUP2 PUSH2 0x1475 JUMP JUMPDEST SWAP1 POP SWAP2 SWAP1 POP JUMP JUMPDEST PUSH1 0x0 PUSH1 0x20 DUP3 ADD SWAP1 POP DUP2 DUP2 SUB PUSH1 0x0 DUP4 ADD MSTORE PUSH2 0x1699 DUP2 PUSH2 0x14B5 JUMP JUMPDEST SWAP1 POP SWAP2 SWAP1 POP JUMP JUMPDEST PUSH1 0x0 PUSH1 0x20 DUP3 ADD SWAP1 POP DUP2 DUP2 SUB PUSH1 0x0 DUP4 ADD MSTORE PUSH2 0x16B9 DUP2 PUSH2 0x14F5 JUMP JUMPDEST SWAP1 POP SWAP2 SWAP1 POP JUMP JUMPDEST PUSH1 0x0 PUSH1 0x20 DUP3 ADD SWAP1 POP DUP2 DUP2 SUB PUSH1 0x0 DUP4 ADD MSTORE PUSH2 0x16D9 DUP2 PUSH2 0x155B JUMP JUMPDEST SWAP1 POP SWAP2 SWAP1 POP JUMP JUMPDEST PUSH1 0x0 PUSH1 0x20 DUP3 ADD SWAP1 POP PUSH2 0x16F5 PUSH1 0x0 DUP4 ADD DUP5 PUSH2 0x159B JUMP JUMPDEST SWAP3 SWAP2 POP POP JUMP JUMPDEST PUSH1 0x0 PUSH1 0x80 DUP3 ADD SWAP1 POP PUSH2 0x1710 PUSH1 0x0 DUP4 ADD DUP8 PUSH2 0x159B JUMP JUMPDEST PUSH2 0x171D PUSH1 0x20 DUP4 ADD DUP7 PUSH2 0x159B JUMP JUMPDEST PUSH2 0x172A PUSH1 0x40 DUP4 ADD DUP6 PUSH2 0x159B JUMP JUMPDEST PUSH2 0x1737 PUSH1 0x60 DUP4 ADD DUP5 PUSH2 0x12F4 JUMP JUMPDEST SWAP6 SWAP5 POP POP POP POP POP JUMP JUMPDEST PUSH1 0x0 DUP3 DUP3 MSTORE PUSH1 0x20 DUP3 ADD SWAP1 POP SWAP3 SWAP2 POP POP JUMP JUMPDEST PUSH1 0x0 PUSH2 0x175C DUP3 PUSH2 0x1782 JUMP JUMPDEST SWAP1 POP SWAP2 SWAP1 POP JUMP JUMPDEST PUSH1 0x0 DUP2 ISZERO ISZERO SWAP1 POP SWAP2 SWAP1 POP JUMP JUMPDEST PUSH1 0x0 DUP2 SWAP1 POP PUSH2 0x177D DUP3 PUSH2 0x17ED JUMP JUMPDEST SWAP2 SWAP1 POP JUMP JUMPDEST PUSH1 0x0 PUSH20 0xFFFFFFFFFFFFFFFFFFFFFFFFFFFFFFFFFFFFFFFF DUP3 AND SWAP1 POP SWAP2 SWAP1 POP JUMP JUMPDEST PUSH1 0x0 DUP2 SWAP1 POP SWAP2 SWAP1 POP JUMP JUMPDEST PUSH1 0x0 PUSH2 0x17B7 DUP3 PUSH2 0x176F JUMP JUMPDEST SWAP1 POP SWAP2 SWAP1 POP JUMP JUMPDEST PUSH32 0x4E487B7100000000000000000000000000000000000000000000000000000000 PUSH1 0x0 MSTORE PUSH1 0x21 PUSH1 0x4 MSTORE PUSH1 0x24 PUSH1 0x0 REVERT JUMPDEST PUSH1 0x3 DUP2 LT PUSH2 0x17FE JUMPI PUSH2 0x17FD PUSH2 0x17BE JUMP JUMPDEST JUMPDEST POP JUMP JUMPDEST PUSH2 0x180A DUP2 PUSH2 0x1751 JUMP JUMPDEST DUP2 EQ PUSH2 0x1815 JUMPI PUSH1 0x0 DUP1 REVERT JUMPDEST POP JUMP JUMPDEST PUSH2 0x1821 DUP2 PUSH2 0x17A2 JUMP JUMPDEST DUP2 EQ PUSH2 0x182C JUMPI PUSH1 0x0 DUP1 REVERT JUMPDEST POP JUMP INVALID LOG2 PUSH5 0x6970667358 0x22 SLT KECCAK256 EXTCODESIZE MULMOD PUSH5 0x6EBD8F8BCD SHL 0xAC DUP3 0x23 SWAP7 ADDRESS 0xF7 DUP5 PC 0xF9 0xC7 0xE5 0xD 0xB7 SWAP9 LOG0 0xB9 SWAP12 0xE3 SLOAD 0xD 0xC5 DIV 0xE5 PUSH5 0x736F6C6343 STOP ADDMOD STOP STOP CALLER "
				},
				"gasEstimates": {
					"creation": {
						"codeDepositCost": "1249000",
						"executionCost": "infinite",
						"totalCost": "infinite"
					},
					"external": {
						"confirmDelivery()": "22736",
						"deliveryEntity()": "1258",
						"deliveryStake()": "1196",
						"disputeFlag()": "1243",
						"escrowAmount()": "1153",
						"getContractBalance()": "406",
						"initiateDelivery()": "21849",
						"manufacturer()": "1300",
						"productVerifications(address)": "infinite",
						"receiver()": "1302",
						"sender()": "1259",
						"startDelivery()": "21927",
						"transactionCompleted()": "1217",
						"verifyProduct(uint256,uint256,uint256)": "infinite"
					}
				},
				"methodIdentifiers": {
					"confirmDelivery()": "5e10177b",
					"deliveryEntity()": "ea5524b8",
					"deliveryStake()": "d3bbf8e5",
					"disputeFlag()": "e60678c0",
					"escrowAmount()": "47a7846f",
					"getContractBalance()": "6f9fb98a",
					"initiateDelivery()": "a1ee4181",
					"manufacturer()": "74754282",
					"productVerifications(address)": "f36f4d02",
					"receiver()": "f7260d3e",
					"sender()": "67e404ce",
					"startDelivery()": "5b22d520",
					"transactionCompleted()": "532ea841",
					"verifyProduct(uint256,uint256,uint256)": "b67a27ab"
				}
			},
			"storageLayout": {
				"storage": [
					{
						"astId": 3,
						"contract": "CAPSTONE/con.sol:EscrowContract",
						"label": "manufacturer",
						"offset": 0,
						"slot": "0",
						"type": "t_address"
					},
					{
						"astId": 5,
						"contract": "CAPSTONE/con.sol:EscrowContract",
						"label": "sender",
						"offset": 0,
						"slot": "1",
						"type": "t_address"
					},
					{
						"astId": 7,
						"contract": "CAPSTONE/con.sol:EscrowContract",
						"label": "deliveryEntity",
						"offset": 0,
						"slot": "2",
						"type": "t_address"
					},
					{
						"astId": 9,
						"contract": "CAPSTONE/con.sol:EscrowContract",
						"label": "receiver",
						"offset": 0,
						"slot": "3",
						"type": "t_address"
					},
					{
						"astId": 11,
						"contract": "CAPSTONE/con.sol:EscrowContract",
						"label": "escrowAmount",
						"offset": 0,
						"slot": "4",
						"type": "t_uint256"
					},
					{
						"astId": 13,
						"contract": "CAPSTONE/con.sol:EscrowContract",
						"label": "deliveryStake",
						"offset": 0,
						"slot": "5",
						"type": "t_uint256"
					},
					{
						"astId": 15,
						"contract": "CAPSTONE/con.sol:EscrowContract",
						"label": "transactionCompleted",
						"offset": 0,
						"slot": "6",
						"type": "t_bool"
					},
					{
						"astId": 17,
						"contract": "CAPSTONE/con.sol:EscrowContract",
						"label": "disputeFlag",
						"offset": 1,
						"slot": "6",
						"type": "t_bool"
					},
					{
						"astId": 36,
						"contract": "CAPSTONE/con.sol:EscrowContract",
						"label": "productVerifications",
						"offset": 0,
						"slot": "7",
						"type": "t_mapping(t_address,t_struct(ProductVerification)31_storage)"
					}
				],
				"types": {
					"t_address": {
						"encoding": "inplace",
						"label": "address",
						"numberOfBytes": "20"
					},
					"t_bool": {
						"encoding": "inplace",
						"label": "bool",
						"numberOfBytes": "1"
					},
					"t_enum(VerificationStatus)21": {
						"encoding": "inplace",
						"label": "enum EscrowContract.VerificationStatus",
						"numberOfBytes": "1"
					},
					"t_mapping(t_address,t_struct(ProductVerification)31_storage)": {
						"encoding": "mapping",
						"key": "t_address",
						"label": "mapping(address => struct EscrowContract.ProductVerification)",
						"numberOfBytes": "32",
						"value": "t_struct(ProductVerification)31_storage"
					},
					"t_struct(ProductVerification)31_storage": {
						"encoding": "inplace",
						"label": "struct EscrowContract.ProductVerification",
						"members": [
							{
								"astId": 23,
								"contract": "CAPSTONE/con.sol:EscrowContract",
								"label": "originalValue",
								"offset": 0,
								"slot": "0",
								"type": "t_uint256"
							},
							{
								"astId": 25,
								"contract": "CAPSTONE/con.sol:EscrowContract",
								"label": "aValue",
								"offset": 0,
								"slot": "1",
								"type": "t_uint256"
							},
							{
								"astId": 27,
								"contract": "CAPSTONE/con.sol:EscrowContract",
								"label": "bValue",
								"offset": 0,
								"slot": "2",
								"type": "t_uint256"
							},
							{
								"astId": 30,
								"contract": "CAPSTONE/con.sol:EscrowContract",
								"label": "status",
								"offset": 0,
								"slot": "3",
								"type": "t_enum(VerificationStatus)21"
							}
						],
						"numberOfBytes": "128"
					},
					"t_uint256": {
						"encoding": "inplace",
						"label": "uint256",
						"numberOfBytes": "32"
					}
				}
			},
			"userdoc": {
				"kind": "user",
				"methods": {},
				"version": 1
			}
		}
	}
}